S00B00004E33432E7372656355
S3150800000000002F2079640008A9610008E96100084A
S31508000010F1610008F961000801620008C964000876
S31508000020000000000000000000000000096200084F
S315080000301762000800000000256200083362000805
S31508000040C9640008C9640008C9640008C9640008CE
S31508000050C9640008C9640008C9640008C9640008BE
S31508000060C9640008C9640008C9640008C9640008AE
S31508000070C9640008C9640008C9640008C96400089E
S31508000080C9640008C9640008C9640008C96400088E
S31508000090C9640008C9640008C9640008C96400087E
S315080000A0C9640008C9640008C9640008C96400086E
S315080000B0C9640008C9640008C9640008C96400085E
S315080000C0C9640008C9640008C9640008C96400084E
S315080000D0C9640008C9640008C964000841620008C8
S315080000E055620008C9640008C9640008C9640008A4
S315080000F0C9640008C9640008C9640008C96400081E
S31508000100C9640008C964000869620008C96400086F
S31508000110C9640008C9640008C9640008C9640008FD
S31508000120C9640008C9640008C9640008C9640008ED
S31508000130C9640008C9640008C9640008C9640008DD
S31508000140C9640008C9640008C9640008C9640008CD
S31508000150C9640008C9640008C9640008C9640008BD
S31508000160C9640008C9640008C9640008C9640008AD
S31508000170C9640008C9640008C9640008C96400089D
S31508000180C9640008C9640008C9640008C96400088D
S31508000190C9640008C9640008C9640008C96400087D
S315080001A0C9640008C9640008C9640008C96400086D
S315080001B0C9640008C9640008C9640008C96400085D
S315080001C0C9640008C9640008C9640008C96400084D
S315080001D0C9640008C9640008C9640008C96400083D
S315080001E0C9640008C9640008C9640008C96400082D
S315080001F0C9640008C9640008C9640008C96400081D
S31508000200C9640008C9640008C9640008C96400080C
S31508000210C9640008C9640008C9640008C9640008FC
S31508000220C9640008C9640008C9640008C9640008EC
S31508000230C9640008C9640008C9640008C9640008DC
S31508000240C9640008C9640008C9640008C9640008CC
S31508000250C9640008C9640008C9640008C9640008BC
S31508000260C964000800000000C9640008C9640008E1
S30908000270C964000847
S3150800027410B5054C237833B9044B13B10448AFF3CE
S3150800028400800123237010BD2C0300200000000009
S3150800029470C1000808B5034B1BB103490348AFF303
S315080002A4008008BD000000003003002070C100086B
S315080002B480B485B000AF786039600023FB810AE01A
S315080002C4FB893A681A44FB8979680B4412781A70D0
S315080002D4FB890133FB81FB890F2BF1D90123FB81B0
S315080002E46AE1FB891B01043B7A6813441B78BB81CA
S315080002F4FB891B01033B7A6813441B781A46AC4BEB
S315080003049A5CFB89013B1B0119467B680B441B78E5
S315080003145340D9B2FB89A74AD25CFB891B0118460C
S315080003247B6803444A40D2B21A70FB891B01023B1C
S315080003347A6813441B781A469D4B995CFB89013BE2
S315080003441B0101337A6813441A78FB891B010133AC
S31508000354786803444A40D2B21A70FB891B01013BF0
S315080003647A6813441B781A46914B995CFB89013BBE
S315080003741B0102337A6813441A78FB891B0102337A
S31508000384786803444A40D2B21A70BB89884AD15C59
S31508000394FB89013B1B0103337A6813441A78FB89EA
S315080003A41B010333786803444A40D2B21A70FB89A6
S315080003B4013B1B0104337A6813441978FB891B0132
S315080003C41A467B6813441A78FB891B010433786838
S315080003D403444A40D2B21A70FB89013B1B01053318
S315080003E47A6813441978FB891B0101337A68134424
S315080003F41A78FB891B010533786803444A40D2B24C
S315080004041A70FB89013B1B0106337A681344197871
S31508000414FB891B0102337A6813441A78FB891B018A
S315080004240633786803444A40D2B21A70FB89013B02
S315080004341B0107337A6813441978FB891B010333B4
S315080004447A6813441A78FB891B01073378680344CE
S315080004544A40D2B21A70FB89013B1B0108337A68F9
S3150800046413441978FB891B0104337A6813441A78F0
S31508000474FB891B010833786803444A40D2B21A70D0
S31508000484FB89013B1B0109337A6813441978FB89F4
S315080004941B0105337A6813441A78FB891B0109334F
S315080004A4786803444A40D2B21A70FB89013B1B019F
S315080004B40A337A6813441978FB891B0106337A6868
S315080004C413441A78FB891B010A33786803444A40A3
S315080004D4D2B21A70FB89013B1B010B337A681344A9
S315080004E41978FB891B0107337A6813441A78FB8940
S315080004F41B010B33786803444A40D2B21A70FB894D
S31508000504013B1B010C337A6813441978FB891B01D8
S3150800051408337A6813441A78FB891B010C33786804
S3150800052403444A40D2B21A70FB89013B1B010D33BE
S315080005347A6813441978FB891B0109337A681344CA
S315080005441A78FB891B010D33786803444A40D2B2F2
S315080005541A70FB89013B1B010E337A681344197818
S31508000564FB891B010A337A6813441A78FB891B0131
S315080005740E33786803444A40D2B21A70FB89013BA9
S315080005841B010F337A6813441978FB891B010B3353
S315080005947A6813441A78FB891B010F337868034475
S315080005A44A40D2B21A70FB890133FB8104E000BFCA
S315080005B488C1000888C30008FB890A2B7FF691AE18
S315080005C400BF00BF1437BD465DF8047B704700BF03
S315080005D480B483B000AF0346FB7197F90730002B4C
S315080005E407DAFB795B00FB71FB7983F01B03DBB24B
S315080005F402E0FB795B00DBB218460C37BD465DF8B2
S31508000604047B704780B584B000AF786039600923ED
S31508000614FB737B681A783B68A0331B785340DAB2BD
S315080006247B681A707B68013319783B68A1331A789A
S315080006347B6801334A40D2B21A707B680233197850
S315080006443B68A2331A787B6802334A40D2B21A70DE
S315080006547B68033319783B68A3331A787B680333BA
S315080006644A40D2B21A707B68043319783B68A433BB
S315080006741A787B6804334A40D2B21A707B68053309
S3150800068419783B68A5331A787B6805334A40D2B291
S315080006941A707B68063319783B68A6331A787B6820
S315080006A406334A40D2B21A707B68073319783B6816
S315080006B4A7331A787B6807334A40D2B21A707B6824
S315080006C4083319783B68A8331A787B6808334A4094
S315080006D4D2B21A707B68093319783B68A9331A7839
S315080006E47B6809334A40D2B21A707B680A33197890
S315080006F43B68AA331A787B680A334A40D2B21A701E
S315080007047B680B3319783B68AB331A787B680B33F1
S315080007144A40D2B21A707B680C3319783B68AC33FA
S315080007241A787B680C334A40D2B21A707B680D3348
S3150800073419783B68AD331A787B680D334A40D2B2D0
S315080007441A707B680E3319783B68AE331A787B685F
S315080007540E334A40D2B21A707B680F3319783B6855
S31508000764AF331A787B680F334A40D2B21A707B6863
S315080007741B781A46914B9A5C97F90F301B01194658
S315080007843B680B441B785340DAB27B681A707B6863
S3150800079404331B781A46894B995C97F90F301B0169
S315080007A404333A6813441A787B6804334A40D2B24D
S315080007B41A707B6808331B781A46804B995C97F93C
S315080007C40F301B0108333A6813441A787B680833D8
S315080007D44A40D2B21A707B680C331B781A46774B98
S315080007E4995C97F90F301B010C333A6813441A784D
S315080007F47B680C334A40D2B21A707B680D331B7877
S315080008041A466E4B9A5C97F90F301B010133396807
S315080008140B441B785340BB737B6809331B781A4611
S31508000824664B995C97F90F301B010D333A681344EC
S315080008341A787B680D334A40D2B21A707B6805333E
S315080008441B781A465D4B995C97F90F301B010933DF
S315080008543A6813441A787B6809334A40D2B21A7044
S315080008647B6801331B781A46544B995C97F90F3009
S315080008741B0105333A6813441A787B6805334A40E2
S31508000884D2B21A707B680133BA7B1A707B6802335A
S315080008941B781A46494B9A5C97F90F301B010A33A1
S315080008A439680B441B785340BB737B6806331B7843
S315080008B41A46424B9A5C97F90F301B010E33396876
S315080008C40B441B7853407B737B680A331B781A46A0
S315080008D43A4B995C97F90F301B0102333A68134473
S315080008E41A787B6802334A40D2B21A707B680E3390
S315080008F41B781A46314B995C97F90F301B0106335E
S315080009043A6813441A787B6806334A40D2B21A7096
S315080009147B680A33BA7B1A707B680E337A7B1A7043
S315080009247B6803331B781A46244B9A5C97F90F3075
S315080009341B010F3339680B441B785340BB737B6820
S3150800094407331B781A461D4B995C97F90F301B0120
S3150800095403333A6813441A787B6803334A40D2B29D
S315080009641A707B680B331B781A46144B995C97F9F3
S315080009740F301B0107333A6813441A787B68073328
S315080009844A40D2B21A707B680F331B781A460B4B4F
S31508000994995C97F90F301B010B333A6813441A789C
S315080009A47B680B334A40D2B21A707B680F33BA7B22
S315080009B41A700823FB7300F028BC00BF88C200081D
S315080009C47B681A787B6802331B785340DBB2184677
S315080009D4FFF7FEFD03461846FFF7FAFD0346BB7309
S315080009E47B6801331A787B6803331B785340DBB280
S315080009F41846FFF7EDFD03461846FFF7E9FD0346DB
S31508000A047B737B681A78BB7B5340DAB27B681A70AF
S31508000A147B68013319787B6801337A7B4A40D2B202
S31508000A241A707B68023319787B680233BA7B4A40AA
S31508000A34D2B21A707B68033319787B6803337A7BDE
S31508000A444A40D2B21A707B6804331A787B68063334
S31508000A541B785340DBB21846FFF7BAFD034618461F
S31508000A64FFF7B6FD0346BB737B6805331A787B68C4
S31508000A7407331B785340DBB21846FFF7A9FD034634
S31508000A841846FFF7A5FD03467B737B68043319787C
S31508000A947B680433BA7B4A40D2B21A707B68053342
S31508000AA419787B6805337A7B4A40D2B21A707B6818
S31508000AB4063319787B680633BA7B4A40D2B21A7071
S31508000AC47B68073319787B6807337A7B4A40D2B246
S31508000AD41A707B6808331A787B680A331B78534084
S31508000AE4DBB21846FFF774FD03461846FFF770FD98
S31508000AF40346BB737B6809331A787B680B331B7808
S31508000B045340DBB21846FFF763FD03461846FFF762
S31508000B145FFD03467B737B68083319787B68083363
S31508000B24BA7B4A40D2B21A707B68093319787B6853
S31508000B3409337A7B4A40D2B21A707B680A33197829
S31508000B447B680A33BA7B4A40D2B21A707B680B3385
S31508000B5419787B680B337A7B4A40D2B21A707B6861
S31508000B640C331A787B680E331B785340DBB218466D
S31508000B74FFF72EFD03461846FFF72AFD0346BB7307
S31508000B847B680D331A787B680F331B785340DBB2C6
S31508000B941846FFF71DFD03461846FFF719FD0346D9
S31508000BA47B737B680C3319787B680C33BA7B4A40B1
S31508000BB4D2B21A707B680D3319787B680D337A7B49
S31508000BC44A40D2B21A707B680E3319787B680E33A2
S31508000BD4BA7B4A40D2B21A707B680F3319787B689D
S31508000BE40F337A7B4A40D2B21A707B681A787B68CC
S31508000BF401331B785340DAB27B6802331B785340BF
S31508000C04DAB27B6803331B785340BB737B681B7863
S31508000C147B737B681A787B6801331B7853403B7374
S31508000C243B7B1846FFF7D4FC03463B737B681A786C
S31508000C343B7B5340DAB2BB7B5340DAB27B681A700B
S31508000C447B6801331A787B6802331B7853403B73FD
S31508000C543B7B1846FFF7BCFC03463B737B680133B2
S31508000C641A783B7B5340D9B27B680133BA7B4A4036
S31508000C74D2B21A707B6802331A787B6803331B78FE
S31508000C8453403B733B7B1846FFF7A2FC03463B7372
S31508000C947B6802331A783B7B5340D9B27B680233AC
S31508000CA4BA7B4A40D2B21A707B6803331A787B7BC4
S31508000CB453403B733B7B1846FFF78AFC03463B735A
S31508000CC47B6803331A783B7B5340D9B27B6803337A
S31508000CD4BA7B4A40D2B21A707B6804331A787B68A6
S31508000CE405331B785340DAB27B6806331B785340C6
S31508000CF4DAB27B6807331B785340BB737B681B796E
S31508000D047B737B6804331A787B6805331B785340F6
S31508000D143B733B7B1846FFF75BFC03463B737B68D8
S31508000D2404331A783B7B5340D9B27B680433BA7BC5
S31508000D344A40D2B21A707B6805331A787B68063340
S31508000D441B7853403B733B7B1846FFF741FC03462D
S31508000D543B737B6805331A783B7B5340D9B27B686F
S31508000D640533BA7B4A40D2B21A707B6806331A78BE
S31508000D747B6807331B7853403B733B7B1846FFF766
S31508000D8427FC03463B737B6806331A783B7B534040
S31508000D94D9B27B680633BA7B4A40D2B21A707B68EA
S31508000DA407331A787B7B53403B733B7B1846FFF724
S31508000DB40FFC03463B737B6807331A783B7B534027
S31508000DC4D9B27B680733BA7B4A40D2B21A707B68B9
S31508000DD408331A787B6809331B785340DAB27B6880
S31508000DE40A331B785340DAB27B680B331B785340BB
S31508000DF4BB737B681B7A7B737B6808331A787B68BA
S31508000E0409331B7853403B733B7B1846FFF7E0FBDB
S31508000E1403463B737B6808331A783B7B5340D9B245
S31508000E247B680833BA7B4A40D2B21A707B680933A6
S31508000E341A787B680A331B7853403B733B7B184606
S31508000E44FFF7C6FB03463B737B6809331A783B7B7B
S31508000E545340D9B27B680933BA7B4A40D2B21A7076
S31508000E647B680A331A787B680B331B7853403B73C9
S31508000E743B7B1846FFF7ACFB03463B737B680A3398
S31508000E841A783B7B5340D9B27B680A33BA7B4A400B
S31508000E94D2B21A707B680B331A787B7B53403B7348
S31508000EA43B7B1846FFF794FB03463B737B680B337F
S31508000EB41A783B7B5340D9B27B680B33BA7B4A40DA
S31508000EC4D2B21A707B680C331A787B680D331B7898
S31508000ED45340DAB27B680E331B785340DAB27B6828
S31508000EE40F331B785340BB737B681B7B7B737B6810
S31508000EF40C331A787B680D331B7853403B733B7B62
S31508000F041846FFF765FB03463B737B680C331A7870
S31508000F143B7B5340D9B27B680C33BA7B4A40D2B286
S31508000F241A707B680D331A787B680E331B78534026
S31508000F343B733B7B1846FFF74BFB03463B737B68C7
S31508000F440D331A783B7B5340D9B27B680D33BA7B91
S31508000F544A40D2B21A707B680E331A787B680F330C
S31508000F641B7853403B733B7B1846FFF731FB03461C
S31508000F743B737B680E331A783B7B5340D9B27B6844
S31508000F840E33BA7B4A40D2B21A707B680F331A788A
S31508000F947B7B53403B733B7B1846FFF719FB0346A1
S31508000FA43B737B680F331A783B7B5340D9B27B6813
S31508000FB40F33BA7B4A40D2B21A707B681B781A463A
S31508000FC4974B9A5C97F90F301B0119463B680B44FB
S31508000FD41B785340DAB27B681A707B6804331B7833
S31508000FE41A468F4B995C97F90F301B0104333A68FC
S31508000FF413441A787B6804334A40D2B21A707B6861
S3150800100408331B781A46864B995C97F90F301B01EF
S3150800101408333A6813441A787B6808334A40D2B2CC
S315080010241A707B680C331B781A467D4B995C97F9C2
S315080010340F301B010C333A6813441A787B680C3357
S315080010444A40D2B21A707B680D331B781A46744B21
S315080010549A5C97F90F301B01013339680B441B78E6
S315080010645340BB737B6809331B781A466C4B995CEF
S3150800107497F90F301B010D333A6813441A787B68C5
S315080010840D334A40D2B21A707B6805331B781A4668
S31508001094634B995C97F90F301B0109333A6813447B
S315080010A41A787B6809334A40D2B21A707B680133CE
S315080010B41B781A465A4B995C97F90F301B0105336E
S315080010C43A6813441A787B6805334A40D2B21A70D0
S315080010D47B680133BA7B1A707B6802331B781A461D
S315080010E44F4B9A5C97F90F301B010A3339680B4446
S315080010F41B785340BB737B6806331B781A46484BE8
S315080011049A5C97F90F301B010E3339680B441B7828
S3150800111453407B737B680A331B781A46404B995CA9
S3150800112497F90F301B0102333A6813441A787B681F
S3150800113402334A40D2B21A707B680E331B781A46B9
S31508001144374B995C97F90F301B0106333A681344F9
S315080011541A787B6806334A40D2B21A707B680A3317
S31508001164BA7B1A707B680E337A7B1A707B680333F2
S315080011741B781A462A4B9A5C97F90F301B010F33D2
S3150800118439680B441B785340BB737B6807331B7859
S315080011941A46234B995C97F90F301B0103333A68B7
S315080011A413441A787B6803334A40D2B21A707B68B0
S315080011B40B331B781A461A4B995C97F90F301B01A7
S315080011C407333A6813441A787B6807334A40D2B21D
S315080011D41A707B680F331B781A46114B995C97F97A
S315080011E40F301B010B333A6813441A787B680B33A8
S315080011F44A40D2B21A707B680F33BA7B1A7097F9D1
S315080012040F30DBB2013BDBB2FB7397F90F30002BCF
S31508001214BFF6D6AB00BF00BF1037BD4680BD00BFC2
S3150800122488C2000880B5AEB000AF7860396007F1AF
S31508001234080339681846FFF73BF807F10803194607
S315080012447868FFF7DFF900BFB837BD4680BD0000F0
S3150800125480B400AF034B1B881846BD465DF8047B73
S31508001264704700BF4803002080B400AF084B094A02
S315080012741A60094B00221A80084B00221A70084B80
S3150800128400221A8000BFBD465DF8047B704700BF84
S315080012940000002000C00108480300204A0300207B
S315080012A44C03002080B582B000AF0023FB801348AE
S315080012B406F06FFF06F020FB114B1B78002B0BD1B1
S315080012C4FF220E21012000F069F80346DAB20C4B1E
S315080012D41A700B4B01221A70094B1B78012B08D183
S315080012E4F4220021022000F059F80346DAB2054B2D
S315080012F41A7000BF0837BD4680BD00BFCC0A00205F
S31508001304500400205104002080B582B000AF0023A9
S31508001314FB7100237B711C4B1B681C4A934225D81E
S31508001324194B1B681A4A934220D30023BB711AE04F
S31508001334154B1968FB79174A13441A46012006F017
S3150800134491FA0346002B08D10F4B1B6810330E4A3B
S315080013541360FB791033FB7102E00B4B02221A600F
S31508001364BB790133BB71BB790F2BE1D90A4B1B88B7
S3150800137401339AB2084B1A8001237B717B7918468C
S315080013840837BD4680BD00BF0000002000803E0827
S3150800139400C00108500300204803002080B582B02D
S315080013A400AF0346FB800B46BB8013467B800F4B7E
S315080013B402221A60FB880D4A5360BB880B4A936065
S315080013C47B880A4AD3600A49084806F077FB03462D
S315080013D4002B01D0022304E0064B074A1A60054B8A
S315080013E41B6818460837BD4680BD00BF5C0400204C
S315080013F46C0400205804002000003F0880B584B01F
S3150800140400AF0023BB600023FB810023FB7100238C
S31508001414BB7140F2E91000F095F90346FB714FF4ED
S31508001424F67000F08FF90346BB71FB79552B09D189
S31508001434BB79552B06D14FF4F57000F0C6F903466F
S31508001444FB810FE0FB79FF2B06D1BB79FF2B03D178
S3150800145448F6FF33FB8105E040F2ED1000F0B5F9DC
S315080014640346FB81FB891B0A9BB2DBB203F001032B
S315080014747B71FB895B0A9BB2DBB203F001033B7108
S31508001484FB899B0A9BB2DBB203F00703FB70FB895B
S315080014945B0B9BB2DBB203F00303BB707B79184684
S315080014A400F0A6F83B79184600F0B8F8BB78184659
S315080014B400F0CAF8FB78184600F0EAF800BF1037BF
S315080014C4BD4680BD80B582B000AF0023FB7140F2F3
S315080014D4FB1000F037F90346BB7140F2FD1000F02B
S315080014E431F903467B71BB79552B09D17B79552B89
S315080014F406D14FF4FE7000F025F90346FB710EE0A1
S31508001504BB79FF2B05D17B79FF2B02D10123FB7114
S3150800151405E04FF4FF7000F015F90346FB71FB79FB
S31508001524184600F055F800BF0837BD4680BD80B59B
S3150800153482B000AF0023FB71AA2140F2FB1000F031
S31508001544BDF8AA2140F2FD1000F0B8F800F034F80E
S315080015540346FB7100BF00BF00BF00BF00BFFB7995
S3150800156419464FF4FE7000F0A9F800BF00BF00BF8B
S3150800157400BF00BF552140F2FB1000F09FF855212B
S3150800158440F2FD1000F09AF800F016F80346FB71D5
S3150800159400BF00BF00BF00BF00BFFB7919464FF468
S315080015A4FF7000F08BF800BF00BF00BF00BF00BF8C
S315080015B400BF0837BD4680BD80B400AF034B1B7817
S315080015C41846BD465DF8047B704700BF6D040020CD
S315080015D480B483B000AF0346FB71044AFB791370E9
S315080015E400BF0C37BD465DF8047B70476D040020C8
S315080015F480B483B000AF0346FB71FB7903F00103A3
S31508001604D9B2054A137861F30003137000BF0C3787
S31508001614BD465DF8047B70475404002080B483B04B
S3150800162400AF0346FB71FB7903F00103D9B2054AFF
S31508001634137861F34103137000BF0C37BD465DF898
S31508001644047B70475404002080B483B000AF03467B
S31508001654FB71FB7903F00303D9B2054A137861F3E6
S315080016644613137000BF0C37BD465DF8047B7047FC
S315080016745404002080B400AF044B1B78C3F3411311
S31508001684DBB21846BD465DF8047B70475404002057
S3150800169480B483B000AF0346FB71FB7903F00703FC
S315080016A4D9B2054A137861F38403137000BF0C3763
S315080016B4BD465DF8047B70475404002080B586B0A7
S315080016C400AF78600B46FB7000233B617B68FB73B5
S315080016D47B68FF2B02D9A223FB7501E0A023FB75C7
S315080016E47B68A3F580737B6000F0EAF8FB7D1846F7
S315080016F400F0A8F800F02EF9FB7B184600F0A2F8D3
S3150800170400F028F9FB78184600F09CF800F022F956
S3150800171400F000F900F079F800233B6105E0084879
S3150800172406F037FD3B6901333B613B6942F20F72B0
S315080017349342F4D900BF00BF1837BD4680BD00BF29
S31508001744CC0A002080B584B000AF78607B68FF2B94
S3150800175402D9A223FB7301E0A023FB7300F0B0F8BF
S31508001764FB7B184600F06EF800F0F4F87B68FF2B54
S3150800177405D97B68DBB2184600F064F804E07B6898
S31508001784DBB2184600F05EF800F0E4F87B68FF2B3D
S3150800179402D9A323FB7301E0A123FB73A123FB73E3
S315080017A400F08EF8FB7B184600F04CF800F0D2F8EF
S315080017B400F046F90346BB7300F0FCF800F0AAF8FB
S315080017C4BB7B18461037BD4680BD80B584B000AFD4
S315080017D478600023FB737868FFF7B4FF0346BB738E
S315080017E4BB7BBB60BB681B02BB607B6801331846C6
S315080017F4FFF7A8FF0346BB73BB7BBA681343BB60FA
S31508001804BB6818461037BD4680BD80B582B000AFA8
S315080018140023FB710CE000F053F8A12000F012F845
S3150800182400F098F80346002B06D1FB790133FB71C7
S31508001834FB793F2BEFD900E000BF00BF0837BD4650
S3150800184480BD000080B584B000AF0346FB7100F08C
S31508001854E9F80023FB7327E0FA79FB7B802141FA38
S3150800186403F31340002B06D001224FF4005112480B
S3150800187406F0DAFB05E000224FF400510E4806F0A4
S31508001884D3FB01224FF480610C4806F0CDFB00F02F
S31508001894B3F800224FF48061084806F0C5FB00F04F
S315080018A4ABF8FB7B0133FB73FB7B072BD4D900BF57
S315080018B400BF1037BD4680BD000C02420004024238
S315080018C480B500AF00F0AEF801224FF480610F48EE
S315080018D406F0AAFB00F090F801224FF400510C48D8
S315080018E406F0A2FB00F088F800224FF400510848DD
S315080018F406F09AFB00F080F800224FF48061034852
S3150800190406F092FB00F078F800BF80BD000402429E
S31508001914000C024280B500AF00F084F800224FF4B0
S3150800192400510A4806F080FB00F066F801224FF4DD
S315080019348061074806F078FB00F05EF801224FF450
S315080019440051024806F070FB00BF80BD000C02423D
S315080019540004024280B582B000AF00F063F80022AA
S315080019644FF48061114806F05FFB00F062F800F05E
S3150800197443F801224FF480610C4806F055FB00F049
S315080019843BF84FF400510A4806F036FB0346FB7150
S3150800199400224FF48061054806F046FB00F02CF857
S315080019A4FB7918460837BD4680BD00BF00040242CD
S315080019B4000C024280B500AF00F034F801224FF45F
S315080019C400510B4806F030FB00F016F801224FF4DC
S315080019D48061084806F028FB00F00EF800224FF450
S315080019E48061044806F020FB00F006F800BF80BDBD
S315080019F4000C02420004024280B582B000AF002304
S31508001A047B6005E0064806F0C4FB7B6801337B600F
S31508001A147B68272BF6D900BF00BF0837BD4680BDB3
S31508001A24CC0A002080B500AF012004F09FFA00BF5D
S31508001A3480BD80B500AF002004F098FA00BF80BDD1
S31508001A4480B582B000AF0023BB71FFF7F2FF002315
S31508001A54FB7128E001224FF48061174806F0E4FA86
S31508001A64FFF7CAFFFFF7C8FF4FF40051134806F003
S31508001A74C3FA0346012B09D1FB79802242FA03F300
S31508001A845AB297F9063013435BB2BB7100224FF47E
S31508001A948061094806F0C8FAFFF7AEFFFFF7ACFF06
S31508001AA4FB790133FB71FB79072BD3D9BB7918462C
S31508001AB40837BD4680BD00BF00040242000C02423E
S31508001AC480B500AF00F0A4F800BF80BD90B583B020
S31508001AD400AF0023FB800EE0B7F9062049491346F8
S31508001AE45B001344DB000B440C3300221A70FB889A
S31508001AF401339BB2FB80B7F90630132BECDD0023C8
S31508001B04FB8031E0B7F906303F4A1B011344002233
S31508001B141A70B7F906303C4A1B01134401330022F4
S31508001B241A70B7F9064004F09DF9024636492301AE
S31508001B340B440C331A600023BB800EE0B7F9062069
S31508001B44B7F90430304912010A4413440233FF2218
S31508001B541A70BB8801339BB2BB80BB88072BEDD9AF
S31508001B64FB8801339BB2FB80B7F90630002BC9DD2D
S31508001B740023FB803CE0B7F90620244913465B00A2
S31508001B841344DB000B44043300221A60B7F9062019
S31508001B941E4913465B001344DB000B44163301222B
S31508001BA41A70B7F90620194913465B001344DB007B
S31508001BB40B440C3300221A700023BB8011E0B7F9DA
S31508001BC40620B7F90410114813465B001344DB00DA
S31508001BD403440B440E33FF221A70BB8801339BB2AD
S31508001BE4BB80BB88072BEAD9FB8801339BB2FB80F1
S31508001BF4B7F90630002BBEDD00BF00BF0C37BD4663
S31508001C0490BD00BF7004002068060020500600201E
S31508001C14B0B58CB000AF002387F82A30002387F8C4
S31508001C242930002387F82B30F5E097F82B207F49D5
S31508001C3413465B001344DB000B440C331B78002B60
S31508001C4400F0E48097F82B2013465B001344DB006E
S31508001C54764A13447B6297F82B20744913465B0033
S31508001C641344DB000B443C461D460FCD0FC495E8D0
S31508001C74030084E803007B6A1B683B627B6A1B6873
S31508001C841B0AC3F31103FB617B6A1B68FB763B786B
S31508001C94F12B03D03B78F92B40F08B807B78172BFC
S31508001CA403D07B78332B40F084800023FB8502E045
S31508001CB4FB8D0133FB85FB8D132B0AD8FA8D5C4902
S31508001CC413465B001344DB000B440C331B78012BCF
S31508001CD4EED0FB8D132B6CD897F82B20534913465B
S31508001CE45B001344DB000B441B68F98D1A0C1204C1
S31508001CF44F480B465B000B44DB0003441A60002381
S31508001D04BB851AE097F82B10BC8DFA8DB88D474D14
S31508001D140B465B000B44DB002B4423440E331C7830
S31508001D24434913465B001344DB000B4403440E3358
S31508001D3422461A70BB8D0133BB85BB8D072BE1D9AF
S31508001D4497F82B10FA8D39480B465B000B44DB00D9
S31508001D54034404331968364813465B001344DB000E
S31508001D6403440433196097F82B10FA8D2F480B4651
S31508001D745B000B44DB0003440D3318782C491346E7
S31508001D845B001344DB000B440D3302461A70FA8DCC
S31508001D94274913465B001344DB000B440C3301222A
S31508001DA41A7004F05FF80346224A13603A78224B05
S31508001DB41A70FB7E002B02D1002387F829300023F2
S31508001DC4BB8515E0BB8D1D4A32F833301A46FB69CC
S31508001DD493420AD1BB8D194ADB0013449B78FA7ED9
S31508001DE49A4202D1164B786A9847BB8D0133BB8554
S31508001DF4BB8D002BE6D097F82B200C4913465B00C5
S31508001E041344DB000B440C3300221A7097F82B306A
S31508001E14013387F82B3097F82B30132B7FF605AF51
S31508001E2400BF00BF3037BD46B0BD00BF70040020F8
S31508001E347C0600205C08002078060020DCC3000825
S31508001E44491E000880B485B000AF78600023FB8182
S31508001E540EE0B7F90E20B7F90E3079680A44917B7B
S31508001E640E4A13440A469A73FB8901339BB2FB81D3
S31508001E74B7F90E30072BECDD7B685B68074A5360BD
S31508001E847B681B68054A13607B681A7B034B1A73C5
S31508001E9400BF1437BD465DF8047B70475006002022
S31508001EA490B585B000AF0023BB600023BB8103E077
S31508001EB4BB8901339BB2BB81B7F90C30132B0BDCFE
S31508001EC4B7F90C203B4913465B001344DB000B446B
S31508001ED40C331B78012BEBD0B7F90C30132B64DCCD
S31508001EE4B7F90C20334913465B001344DB000B4453
S31508001EF40C331B78002B58D103F0EAFEB860B86897
S31508001F0400F05CF80346002B4FD00023FB73B7F9A7
S31508001F140C4003F0A7FF0246264923465B002344E8
S31508001F24DB000B4404331A60B7F90C202149134625
S31508001F345B001344DB000B44BA681A60B7F90C401B
S31508001F4403F0D2FE034619461A4A23465B00234485
S31508001F54DB0013440D330A461A700023FB7312E0A0
S31508001F64FB7BB7F90C20F97B1348C45C114813466C
S31508001F745B001344DB0003440B440E3322461A70F9
S31508001F84FB7B0133FB73FA7BFB799A4202D2FB7B18
S31508001F94072BE5D9B7F90C20064913465B00134409
S31508001FA4DB000B440C3301221A7000BF1437BD46FC
S31508001FB490BD00BF70040020380B002080B485B0A3
S31508001FC400AF78600023FB730BE0FB7B0A4A52F8E8
S31508001FD423307A689A4201D1012306E0FB7B013358
S31508001FE4FB73FB7B112BF0D9002318461437BD4627
S31508001FF45DF8047B704700BF94C3000890B583B0AE
S3150800200400AF00237B80B64B00221A70E9E2B44B7A
S315080020141B781946B34A0B465B000B44DB00134492
S315080020240C331B78002B00F0D6820023FB8014E0C7
S31508002034AB4B1B781C46F988FA88AA4823465B00EA
S315080020442344DB0003440B440E331978A64B13448C
S315080020540A461A71FB880133FB80FB88072BE7D9EC
S315080020649F4B1B7819469F4A0B465B000B44DB00C3
S31508002074134404331B689C4A1361994B1B7819460D
S31508002084984A0B465B000B44DB0013441B68964ACC
S315080020941360954B1B68954A1360934B1B7903F0A1
S315080020A40F03D9B2904A137B61F3030313738E4B60
S315080020B41B791B09DBB203F00F03D9B28A4A137BD7
S315080020C461F307131373884B5A79874B5A73864BF4
S315080020D45A79854B9A73844B9A79834BDA73824B74
S315080020E41B7BC3F30313DBB2032B00F2688201A242
S315080020F452F823F00921000801230008D323000815
S31508002104332500087A4B93F81F31022B40F2448298
S31508002114754B1B7BC3F30303DBB2072B00F23C822C
S31508002124714B1B7B03F00F03DBB2002B00F03482E8
S315080021346D4B1B7BC3F30303DBB21A466D4B1A7450
S31508002144694B1B696B4AD3600023BB800BE0BA88D2
S31508002154BB8865490A441179664A13440A461A71C2
S31508002164BB880133BB80634B1B7C1A46BB889342EE
S31508002174EDD95D4B1B685F4A13605E4B01225A74A6
S315080021845C4B5B79872B00F09980872B00F3A28040
S315080021943E2B67DC102BC0F29D80103B2E2B00F2E1
S315080021A4998001A252F823F06F22000875220008CC
S315080021B4D9220008D9220008D9220008D922000801
S315080021C4D9220008D9220008D9220008D9220008F1
S315080021D4D9220008D9220008D9220008D9220008E1
S315080021E4D9220008D9220008D9220008D9220008D1
S315080021F493220008D9220008D9220008D922000807
S31508002204D92200087B22000881220008D922000866
S31508002214D9220008D9220008D9220008D9220008A0
S31508002224BB220008C7220008D9220008CD220008CC
S31508002234D9220008D9220008D9220008D922000880
S31508002244D9220008D3220008D9220008D922000876
S31508002254D9220008D9220008D9220008D922000860
S3150800226487220008852B0FD034E000F021FA31E0EC
S3150800227400F0D6FA2EE000F073FB2BE000F042FDE6
S3150800228428E000F023FF25E000F068FF22E0194B60
S315080022941B7C052B03D0174B1B7C072B08D100F09E
S315080022A4AFF902F03DF8144B072283F8222111E016
S315080022B401F09CFC0EE002F081FA0BE001F08EF9C5
S315080022C408E001F06BFC05E000F0AAFF02E001F06B
S315080022D4E7FB00BF02F042FC064B00225A745BE19E
S315080022E4940800207C0600207C080020740800203E
S315080022F42C0100206008002004000020A84B1B7B4A
S31508002304C3F30303DBB21B027B80A54B5B7B1A4634
S315080023147B8813437B80A34B93F81F31022B41D947
S315080023247B88072B3ED97B88B3F5897F3AD89C4BA3
S315080023341B689D4AC2F814319B4A7B88A2F81C3153
S315080023449A4B00221A8010E0984B1B881946974B23
S315080023541B881A46924B0B441979934B9954934B01
S315080023641B8801339AB2914B1A80904B1B88072B12
S31508002374EAD98D4B93F81E310133DAB28A4B83F8C6
S315080023841E21874B1B69884AC2F81831864B0122DD
S3150800239483F82221844B012283F81F21844B0622C9
S315080023A41A8011E07B88B3F5897F0DD97E4B062206
S315080023B483F822217C4B022283F81F217C4B0022BE
S315080023C41A807A4B00221A8002F0C8FBF7E0754B94
S315080023D493F81F31012B00F0E180734B022283F836
S315080023E42221714B93F81E216D4B1B795340DBB2A6
S315080023F403F00F03002B02D06E4B01221A706A4BAE
S3150800240493F81E310133DAB2674B83F81E21644B05
S315080024141B69654AC2F818310123BB800FE0BA88E4
S31508002424624B1B88591C88B26049088019465C4B64
S3150800243413441A795C4B5A54BB880133BB80BB8856
S31508002444072BECD95A4B1B8807339AB2584B1A8078
S31508002454554BB3F81C21564B1B889A4200F29E80B2
S31508002464514B012283F823214F4B9B78362B31DCC1
S31508002474222B4FDB223B142B4CD801A252F823F013
S31508002484F924000819250008192500081925000843
S3150800249419250008DF24000819250008192500084D
S315080024A41925000819250008192500081925000802
S315080024B4FF24000805250008192500081925000821
S315080024C419250008192500080B25000819250008F0
S315080024D411250008852B03D01CE000F041FA19E009
S315080024E4354B1B7803F00203DBB2002B11D000F046
S315080024F46FFE0EE001F014FF0CE002F05FF909E04C
S3150800250401F022FB06E001F0E9F803E001F09CF98A
S3150800251400E000BF254B00221A80254B00221A80B2
S31508002524214B052283F8222102F018FB36E01D4BC5
S3150800253493F81F31012B04D01A4B93F82231012B3F
S315080025443CD1174B1B7BC3F30303DBB21A46154B6B
S3150800255483F81F21124B9A7B124B83F82021104BC8
S31508002564DA7B104B83F821210E4B93F82131322B59
S3150800257403D90C4B322283F821210A4B93F82131D3
S31508002584F02B1BD9074B93F82131F92B16D8054B99
S31508002594012283F8212111E000BF10E000BF0EE0FC
S315080025A47C0800202C010020040000209608002046
S315080025B49808002078080020A402002000BF0E4BCB
S315080025C41B7819460D4A0B465B000B44DB00134483
S315080025D40C3300221A70084B1B780133DAB2064B07
S315080025E41A70054B1B78132B7FF611AD00BF00BF7D
S315080025F40C37BD4690BD00BF940800207C06002019
S3150800260480B483B000AF0023FB711B4B00221A7001
S31508002614FB791A4A13441B7903F00F03DAB2164BF3
S315080026245A700123FB710AE0FA79FB7901331349DD
S315080026340A441179104AD154FB790133FB71FB79A9
S31508002644072BF1D90D4B1B680B4AC2F814310B4BF7
S315080026541B7C1A46084BA3F81C21084BDB68064A60
S31508002664C2F81831044B012283F8232100BF0C3722
S31508002674BD465DF8047B704704000020600800200E
S3150800268480B400AF034B1B781846BD465DF8047B3F
S31508002694704700BF7808002080B400AF034B0022BF
S315080026A41A7000BFBD465DF8047B704778080020A1
S315080026B480B582B000AF0023BB7100237B71514BF8
S315080026C41B7C022B05D0504B13225A740123BB7171
S315080026D408E04E4B1B78012B04D14B4B22225A742B
S315080026E40123BB7103F00CFB03467B71454B9B79B5
S315080026F4602B3AD0602B4FDC552B46D0552B4BDC40
S31508002704012B05D0022B47D1414B02221A704EE009
S31508002714BB79002B46D17B79012B20D13C4B012276
S315080027241A7003F09FFB03463A4A13600023FB71B1
S315080027340CE0FA79384913465B001344DB000B4472
S315080027440C3300221A70FB790133FB71FB79132BC6
S31508002754EFD9324A13786FF30103137022E02A4B38
S3150800276411225A740123BB711CE0BB79002B1BD1BF
S315080027747B79012B03D1264B60221A7014E0224B75
S3150800278411225A740123BB710EE0BB79002B0DD1BB
S315080027941F4B55221A7009E01B4B11225A74012348
S315080027A4BB7104E000BF02E000BF00E000BFBB79D4
S315080027B4012B09D1144B03229A73134B7F22DA7324
S315080027C4114B10221A7415E00F4B06229A730E4BFE
S315080027D45022DA730B4B9A790B4B1A740A4B002264
S315080027E45A74094B32229A74074B1322DA74064B2D
S315080027F488221A75044B01221A7300BF0837BD468E
S3150800280480BD00BF60080020A40900209E020020A5
S31508002814A00200205C0800207C060020D4090020C1
S3150800282480B582B000AF0023FB710023BB80002370
S315080028347B80454B1B7803F00103DBB2002B04D1E4
S31508002844414A137843F0100313703F4B1B7803F087
S315080028540203DBB2002B72D03C4B1B7C022B04D048
S315080028643B4B13225A740123FB71384B9B79052B76
S3150800287440DC042B38DA022B02DC002B1BDC39E0A3
S31508002884032B37D1FB79002B3AD1314B03229A73A8
S315080028942F4B5122DA732E4B03221A7403F0E2FAF1
S315080028A403469AB22B4B1A80294B01225A742A4B97
S315080028B401221A7024E0FB79002B23D1244B03222E
S315080028C49A73234B5122DA73214B02221A7403F0AA
S315080028D4C9FA03469AB21F4B1A801D4B01225A7431
S315080028E41D4B01221A700DE0194B12225A7401234A
S315080028F4FB7108E0164B12225A740123FB7102E09D
S3150800290400BF00E000BF154B1B78012B07D1FB79EC
S31508002914002B04D10E4B22225A740123FB71FB7936
S31508002924012B08D10A4B03229A73094B7F22DA73C7
S31508002934074B11221A74064B01221A7300E000BFD2
S315080029440837BD4680BD00BFA402002060080020E9
S31508002954A4090020BC090020BE0900209E0200200C
S3150800296480B582B000AF0023BB710023BB80A74BA0
S315080029741B78012B05D1A64B7F225A740123BB7100
S315080029841FE1A44B1B7803F01003DBB2002B0FD016
S3150800299403F068FA02469F4B5B68D31A42F20F7239
S315080029A4934205D89A4B37225A740123BB7108E11E
S315080029B4984B1B78C3F34213DBB2022B14D903F0EA
S315080029C451FA0346934A5360924A13786FF34713AE
S315080029D41370904A137843F0100313708C4B362205
S315080029E45A740123BB71ECE08A4B1B7803F003038A
S315080029F4DBB2002B40F0B480874B9B79012B58D16E
S31508002A04844A13786FF304131370824B01225A70A5
S31508002A14824B1222A3F81C21814B67221A70804B21
S31508002A2401225A7003F01EFA0346BB80BB88002BAA
S31508002A3403D17C4808F06CFB03E0BB88184608F011
S31508002A4467FB0223FB711BE008F090FB0246764BFA
S31508002A5483FB02131344D911D317C91A0B461B0255
S31508002A645B1AD11AFB79C9B26D4AD154FA79FB7942
S31508002A74023B6B49895C6D4AD154FB790133FB717E
S31508002A84FB79112BE0D9694B00221A741223FB71C6
S31508002A9406E0FB79624A0021D154FB790133FB71C4
S31508002AA4FB79292BF5D95C4B00229A7101F030FF8A
S31508002AB487E05F4BDB78022B40F08380554B5B78CD
S31508002AC4002B7ED001F004FF5A495B48FEF7AAFBA7
S31508002AD410225649584808F08CFC0346002B12D19C
S31508002AE44C4A1378012161F301031370484B0222FF
S31508002AF49A73474B6722DA73454B02221A74444B7E
S31508002B0401221A735DE001F0E3FE4C494A48FEF7D8
S31508002B1489FB10224549484808F06BFC0346002BFC
S31508002B2418D13C4A1378012161F301031370394A19
S31508002B341378022161F383031370354B02229A73C7
S31508002B44334B6722DA73324B02221A74304B012252
S31508002B541A7336E02E4B35225A740123BB7130E0C2
S31508002B642C4B1B7803F00303DBB2012B29D12A4B28
S31508002B749B79012B25D1274B01225A70274B122208
S31508002B84A3F81C21264B67221A70254B01225A707A
S31508002B940223FB710BE0FB79214A0021D154FB790E
S31508002BA4023B224A0021D154FB790133FB71FB799C
S31508002BB4112BF0D901F0ACFE164A13786FF34713BC
S31508002BC41370BB79002B56D1134B9B79022B05D96D
S31508002BD40F4B12225A740123BB714CE00E4B5B79DE
S31508002BE4272B03D10C4B1B7C022B08D1104B9B784B
S31508002BF4272B25D10E4BB3F81C31122B20D0044BAE
S31508002C0413225A740123BB7135E000BFA0020020C9
S31508002C14A4090020D4090020600800202C01002003
S31508002C24A4080020E760050081808080DC09002074
S31508002C340400002048C40008C00900205CC4000839
S31508002C442A4B5B78002B0DD1294BDB78022B03D05A
S31508002C54284B9B79022B05D1274B24225A7401232E
S31508002C64BB7108E0254B1B78012B04D1224B222289
S31508002C745A740123BB71BB79012B32D10423FB712E
S31508002C8407E0FB791C4A134400229A73FB79013343
S31508002C94FB71FB79072BF4D9174B03229A73164B4E
S31508002CA47F22DA73144B27221A74104B00225A70A7
S31508002CB4114B5B7C372B0DD00C4B1B78C3F342139B
S31508002CC4DBB2013303F00703D9B2084A137861F378
S31508002CD447131370084B01221A73094B002283F811
S31508002CE4232100BF0837BD4680BD00BFD409002094
S31508002CF40400002060080020A40900209E02002089
S31508002D042C01002080B582B000AF0023FB7100239C
S31508002D14BB8002F0F5FF0346BB80BB88022B0FD1AC
S31508002D24B24B03229A73B14B7F22DA73AF4B282234
S31508002D341A74AE4B11225A74AC4B01221A73BAE1B7
S31508002D44AB4B1B78602B09D0A94B1B78552B05D0A8
S31508002D54A64B7F225A740123FB7108E0A54B1B7C02
S31508002D64032B04D0A14B13225A740123FB71A14BE4
S31508002D749B79032B00F2688101A252F823F000BF65
S31508002D84952D0008312E0008EB2E0008872F000821
S31508002D94FB79002B40F06281964BDB791B09DBB289
S31508002DA4002B40F05B81934BDB7903F00F03012B77
S31508002DB40AD1914A137843F0010313708E4A1378A3
S31508002DC443F00203137049E18A4BDB7903F00F03DE
S31508002DD4022B0AD1884A137843F004031370864AEF
S31508002DE4137843F00803137038E1824BDB7903F058
S31508002DF40F03032B14D1804A137843F0040313708A
S31508002E047D4A137843F0080313707B4A137843F01A
S31508002E1401031370784A137843F0020313701DE113
S31508002E24724B31225A740123FB7117E1FB79002B8B
S31508002E3440F016816F4BDB791B09DBB2002B40F09F
S31508002E440F816C4BDB7903F00F03012B0FD16A4A10
S31508002E5413786FF300031370674A13786FF3041338
S31508002E641370654A137843F002031370F8E0614B54
S31508002E74DB7903F00F03022B0FD15F4A13786FF344
S31508002E84820313705C4A13786FF3041313705A4A57
S31508002E94137843F008031370E2E0564BDB7903F02A
S31508002EA40F03032B19D1544A13786FF38203137053
S31508002EB4514A137843F0080313704F4A13786FF393
S31508002EC4000313704C4A137843F0020313704A4AFA
S31508002ED413786FF304131370C2E0444B31225A7407
S31508002EE40123FB71BCE0FB79002B40F0BB80414B0E
S31508002EF4DB791B09DBB2002B40F0B4803D4BDB7950
S31508002F0403F00F03012B0AD13B4A137843F001035C
S31508002F141370394A13786FF341031370A2E0354BE3
S31508002F24DB7903F00F03022B0AD1334A137843F0F3
S31508002F3404031370304A13786FF3C303137091E0D4
S31508002F442C4BDB7903F00F03032B14D12A4A13788D
S31508002F5443F004031370284A13786FF3C3031370FA
S31508002F64254A137843F001031370234A13786FF341
S31508002F744103137076E01D4B31225A740123FB7109
S31508002F8470E0FB79002B6FD11A4BDB791B09DBB296
S31508002F94002B69D1174BDB7903F00F03012B0FD1F3
S31508002FA4154A13786FF300031370134A13786FF3F3
S31508002FB404131370104A13786FF34103137053E024
S31508002FC40C4BDB7903F00F03022B17D10A4A13784B
S31508002FD46FF382031370084A13786FF3041313709C
S31508002FE4054A13786FF3C30313703DE0A409002060
S31508002FF4A002002060080020A40200202F4BDB79E1
S3150800300403F00F03032B19D12D4A13786FF38203A8
S3150800301413702B4A13786FF3C3031370284A137873
S315080030246FF304131370264A13786FF300031370AF
S31508003034234A13786FF34103137015E0214B3122A9
S315080030445A740123FB710FE01E4B5B7C7F2B0CD05B
S315080030541C4B12225A740123FB7106E000BF04E0DC
S3150800306400BF02E000BF00E000BFFB79002B08D1D7
S31508003074154B1B78012B04D1124B22225A740123B7
S31508003084FB71FB79012B09D10E4B03229A730D4B65
S315080030947F22DA730B4B28221A7409E0094B0222A1
S315080030A49A73084B6822DA73044B9A79054B1A7497
S315080030B4044B01221A730837BD4680BD60080020F8
S315080030C4A4020020A40900209E02002080B582B034
S315080030D400AF0023FB711E4B1B7C022B04D01D4B37
S315080030E413225A740123FB71194B9B79002B03D0C5
S315080030F4174B9B79802B12D1FB79002B14D1154BD6
S3150800310402229A73134B7E22DA73114B9A79114B66
S315080031141A7402F0A7FE03460F4A136004E00D4B27
S3150800312412225A740123FB71FB79012B08D1094B2E
S3150800313403229A73074B7F22DA73064B3E221A74CC
S31508003144044B01221A7300BF0837BD4680BD00BF71
S3150800315460080020A40900205C08002080B582B01D
S3150800316400AF0023FB710023BB80174B1B7803F0C9
S315080031740103DBB2002B04D1134A137843F010037E
S315080031841370114B1B7803F00203DBB2002B16D025
S3150800319402F0B6FD0346BB80BB88022B10D10B4B4D
S315080031A403229A73094B7F22DA73084B85221A7411
S315080031B4064B11225A74054B01221A7300E000BF0C
S315080031C40837BD4680BD00BFA4020020A40900201C
S315080031D480B582B000AF0023FB710023BB710023C6
S315080031E47B7100233B7102F08BFD03463B713B79EF
S315080031F4022B0FD1094B03229A73084B7F22DA73E9
S31508003204064B85221A74054B11225A74034B012264
S315080032141A7300BF0837BD4680BD00BFA409002045
S3150800322480B584B000AF0023FB730023BB7300236F
S315080032347B810023BB8100237B7200233B72A54B51
S315080032441B7803F00103DBB2002B04D1A14A1378DF
S3150800325443F0100313709F4B1B7803F00203DBB291
S31508003264002B00F0AE819C4B1B884FF601729342EB
S3150800327404D0994B1B88B3F57F4F77D102F067FDCD
S3150800328403467B7202F06CFD03463B727B7A012B84
S315080032941BD1914B1B884FF60172934215D18F4B64
S315080032A404229A738D4B7122DA738C4B01221A7499
S315080032B48A4BFF225A74894B01229A74874B01223E
S315080032C41A73854B00221A804FE03B7A012B1CD1D6
S315080032D4814B1B88B3F57F4F17D1804B04229A7311
S315080032E47E4B7122DA737D4B01221A747B4BFF22C3
S315080032F45A747A4B00229A74784B01221A73764BC5
S3150800330400221A8002F038FD2FE002F0ABFD0246D7
S31508003314734B1B68D31AB3F5FA6F40F2548102F063
S31508003324A1FD03466E4A13606C4B03229A736B4BDA
S315080033347F22DA73694B31221A74684B78225A74DD
S31508003344664B01221A73674B1B780133DAB2654B55
S315080033541A70644B1B78022B40F23581614B0022AC
S315080033641A705D4B00221A802DE12CE102F0D8FC7C
S315080033740346BB815C4B1B7803F00303DBB2002BCB
S3150800338405D1564B33225A740123FB7308E0574B75
S315080033941B7C042B04D0514B13225A740123FB7350
S315080033A4524BDB797B817B891B021AB24F4B1B7A02
S315080033B41BB213431BB27B814C4B9B79012B65D102
S315080033C4FB7B002B40F097807B894FF60172934272
S315080033D40AD04FF60172934252DCB3F57C5F21D0D2
S315080033E4B3F57F4F0CD04BE002F08AFC03467B72A0
S315080033F47B7A022B7ED0384B4FF601721A8079E01D
S3150800340402F07EFC03467B727B7A022B04D1324B94
S315080034144FF47F421A806EE00123FB732F4B31224F
S315080034245A7468E002F06CFC03467B727B7A022BC2
S3150800343405D10123FB73294B31225A745BE002F050
S3150800344467FC0346BB8102F073FC0346FB71BB8928
S31508003454002B06D00223BB73BB7B43F00403BB7368
S3150800346449E0FB79032B06D10223BB73BB7B43F0EC
S315080034740803BB733FE002F063FC0123BB733AE025
S315080034840123FB73154B31225A7434E0FB7B002B62
S3150800349416D1164B9B79032B12D17B894FF60372EF
S315080034A4934207D102F08CFC0346BB73104B0122EE
S315080034B41A7020E00123FB73084B31225A741AE070
S315080034C4064B5B7C332B16D00123FB73034B12226A
S315080034D45A7410E0A4020020A0080020A4090020C1
S315080034E4F0090020F4090020D4090020600800200F
S315080034F4BF09002000BFFB7B012B09D1344B0322F3
S315080035049A73334B7F22DA73314B31221A7454E09F
S31508003514BB89002B09D07B89B3F57C5F05D00123D1
S31508003524FB732B4B22225A7447E02A4B9B79032BB5
S3150800353403D07B89B3F57C5F15D1254B05229A7395
S31508003544234B7122DA73234B9A79214B1A74214B34
S31508003554DA791F4B5A741F4B1A7A1D4B9A741C4AF4
S31508003564BB7BD37429E01C4B1B884FF6017293422C
S3150800357404D0194B1B88B3F57F4F0CD1144B032287
S315080035849A73134B7F22DA73114B31221A74104B38
S3150800359478225A7411E00E4B04229A730C4B71224A
S315080035A4DA730C4B9A790A4B1A740A4BDA79084B74
S315080035B45A74084B1A7A064B9A74054B01221A73E5
S315080035C402E000BF00E000BF1037BD4680BD00BF63
S315080035D4A409002060080020A008002080B582B055
S315080035E400AF0023FB71394B1B7803F00103DBB2F0
S315080035F4002B04D1354A137843F010031370334B68
S315080036041B7803F00203DBB2002B5AD0304B1B7C29
S31508003614032B04D02F4B13225A740123FB712C4B12
S315080036249B79012B1FD12A4BDB79132B0ED0132B35
S3150800363410DC112B02D0122B04D00BE0002002F070
S3150800364401FC17E0012002F0FDFB13E0022002F062
S31508003654F9FB0FE0FB79002B0BD11E4B31225A7470
S315080036640123FB7105E01B4B12225A740123FB71DB
S3150800367400E000BFFB79002B08D1174B1B78012B00
S3150800368404D1144B22225A740123FB71FB79012BB2
S3150800369409D1104B03229A730E4B7F22DA730D4B12
S315080036A487221A7409E00B4B02229A73094BC72224
S315080036B4DA73074B9A79074B1A74064B01221A7365
S315080036C400E000BF0837BD4680BD00BFA402002045
S315080036D460080020A40900209E02002080B584B05A
S315080036E400AF0023FB730023BB6000237B60002329
S315080036F4FB7002F005FB0346FB70FB78012B0FD128
S315080037044B4B03229A734A4B7F22DA73484B342273
S315080037141A74474B11225A74454B01221A7384E0D2
S31508003724444B1B78022B09D0424B1B78552B05D0EA
S315080037343F4B7F225A740123FB7316E03E4B1B78DA
S3150800374403F00303DBB2002B05D1394B33225A7439
S315080037540123FB7309E0394BB3F81C31092B04D058
S31508003764334B13225A740123FB73FB7B002B3AD188
S31508003774324BDB78002B2FD1304B1B79332B2BD1D3
S315080037842E4B5B79BB60BB681B022C4A92791343A8
S31508003794BB60BB681B02294AD2791343BB60274B1B
S315080037A41B7A7B607B681B02244A527A13437B602C
S315080037B47B681B02214A927A13437B60BB68B3F584
S315080037C4D03F03D17B681E4A93420BD00123FB7377
S315080037D4174B31225A7405E00123FB73144B31222B
S315080037E45A7400E000BFFB7B012B09D1104B03225E
S315080037F49A730F4B7F22DA730D4B34221A7411E035
S315080038040B4B04229A730A4B7422DA73084B202250
S315080038141A74074B01225A74054B02229A74094BEF
S3150800382401221A70024B01221A731037BD4680BD55
S31508003834A4090020A0020020D409002004000020C6
S3150800384400FF0F009E08002080B582B000AF002359
S31508003854FB710023FB700023BB8002F051FA034678
S31508003864FB70FB78012B0FD1844B03229A73834B8D
S315080038747F22DA73814B36221A74804B11225A74CA
S315080038847E4B01221A73F6E07D4B1B78012B74D10B
S3150800389402F07EFA0346FB70FB78012B12D1774BB4
S315080038A402229A73754B7622DA73764B1A78734B1F
S315080038B41A74724B01221A73714B00221A7002F0A1
S315080038C473FAD7E0FB78022B14D16C4B03229A7354
S315080038D46A4B7F22DA73694B36221A74674B722253
S315080038E45A74664B01221A73654B00221A7002F049
S315080038F45BFABFE002F0B6FA0346634A12789B1AEB
S31508003904B3F5FA6F40F2B68002F0ACFA0346DAB2BF
S315080039145D4B1A70594B03229A73584B7F22DA73FC
S31508003924564B36221A74554B78225A74534B012235
S315080039341A73564B1B780133DAB2544B1A70534B2D
S315080039441B78022B40F29680504B00221A704B4B80
S3150800395403229A73494B7F22DA73484B36221A7428
S31508003964464B72225A74454B01221A73444B002261
S315080039741A70474B00221A707CE0FEF781FE034654
S31508003984FB70444BDA78424B1B789A4205D03B4B82
S3150800399473225A740123FB7119E03E4BB3F81C31A8
S315080039A4B3F5837F05D3354B13225A740123FB7170
S315080039B40DE0394B1B78002B02D0FB78012B06D17E
S315080039C42E4B24225A740123FB71FEF765FEFB79FC
S315080039D4002B28D12F4BDA782A4B1A700023BB8088
S315080039E409E0BB881A1DBB882A49895C2B4AD1542D
S315080039F4BB880133BB80BA88264BB3F81C31023B1B
S31508003A049A42EEDB1E4B01221A70214B1B78FF2BC0
S31508003A1403D11F4B00221A7005E01D4B1B78013396
S31508003A24DAB21B4B1A70FB79012B09D1134B03220B
S31508003A349A73124B7F22DA73104B36221A7415E0E6
S31508003A440F4B1B78012B11D10C4B03229A730B4B8A
S31508003A547F22DA73094B36221A74084B78225A7471
S31508003A6402F000FA0346DAB2074B1A70034B012236
S31508003A741A7300E000BF0837BD4680BDA4090020BC
S31508003A84A2080020A3080020F5090020F609002052
S31508003A949F020020040000209E08002050030020F6
S31508003AA480B582B000AF0023FB710023BB7102F01E
S31508003AB427F90346BB71BB79012B0FD11F4B032290
S31508003AC49A731E4B7F22DA731C4B37221A741B4BCC
S31508003AD411225A74194B01221A732CE0184B1B78BD
S31508003AE4022B09D0164B1B78552B05D0134B7F2276
S31508003AF45A740123FB7108E0124B1B7C012B04D07A
S31508003B040E4B13225A740123FB71FB79012B09D13D
S31508003B140A4B03229A73094B7F22DA73074B37221F
S31508003B241A7405E0054B01229A73044B7722DA735B
S31508003B34024B01221A730837BD4680BDA40900202A
S31508003B44A00200206008002080B582B000AF0023E0
S31508003B54FB710023BB710023BB8000237B800023F9
S31508003B647B7002F0CDF803467B707B78022B0FD16D
S31508003B74094B03229A73084B7F22DA73064B2F22CA
S31508003B841A74054B11225A74034B01221A7300BF87
S31508003B940837BD4680BD00BFA409002080B582B0A1
S31508003BA400AF0023FB710023BB8000237B80002326
S31508003BB47B7002F0A5F803467B707B78022B0FD145
S31508003BC4094B03229A73084B7F22DA73064B2F227A
S31508003BD41A74054B11225A74034B01221A7300BF37
S31508003BE40837BD4680BD00BFA409002080B586B04D
S31508003BF400AF0023FB750023BB7500233B6100233C
S31508003C04FB600023BB600023FB80C44B1B7803F0D6
S31508003C140103DBB2002B04D1C04A137843F0100326
S31508003C241370BE4B1B7803F00203DBB2002B00F0C3
S31508003C346983BB4B1B7C032B0DD0B94B1B7C052B13
S31508003C4409D0B74B1B7C072B05D0B64B13225A74E5
S31508003C540123FB7508E0B44B1B78012B04D1B14B47
S31508003C6422225A740123FB75AD4B9B79F12B40F044
S31508003C74F682AB4BDB79413B652B00F2EA8201A263
S31508003C8452F823F025420008C141000857420008AB
S31508003C94574200085742000857420008574200088E
S31508003CA4574200085742000857420008574200087E
S31508003CB4574200085742000857420008574200086E
S31508003CC4574200085742000857420008574200085E
S31508003CD4574200085742000857420008574200084E
S31508003CE4574200085742000857420008574200083E
S31508003CF4574200085742000857420008574200082E
S31508003D04574200085742000857420008574200081D
S31508003D14574200085742000857420008574200080D
S31508003D2457420008574200085742000857420008FD
S31508003D3457420008574200085742000857420008ED
S31508003D4457420008574200085742000857420008DD
S31508003D5457420008574200085742000857420008CD
S31508003D6457420008574200085742000857420008BD
S31508003D7457420008574200085742000857420008AD
S31508003D84573E0008574200085742000857420008A1
S31508003D945742000857420008574200087D3F00086A
S31508003DA4F93F0008574200085742000857420008DE
S31508003DB4213E0008574200085742000857420008A7
S31508003DC457420008C33E0008093F0008FB400008A4
S31508003DD4B33F0008574200085742000857420008F4
S31508003DE49F410008574200085742000857420008F6
S31508003DF42341000857420008574200085742000862
S31508003E045742000857420008574200083F40000836
S31508003E14C5400008574200088D3E0008FB7D002B6C
S31508003E2440F02382414B0F22A3F81C2100237B7503
S31508003E3409E07A7D7B7D03333D49895C3D4AD1544B
S31508003E447B7D01337B757B7D0B2BF2D90123BB75F7
S31508003E540BE2FB7D002B40F00A82344B1222A3F8B6
S31508003E641C2100237B7509E07A7D7B7D0333324967
S31508003E74895C304AD1547B7D01337B757B7D0E2B5F
S31508003E84F2D90123BB75F2E1FB7D002B40F0F181E9
S31508003E94264B1722A3F81C2100237B7509E07A7D9B
S31508003EA47B7D03332549895C224AD1547B7D0133C2
S31508003EB47B757B7D132BF2D90123BB75D9E1FB7D79
S31508003EC4002B40F0D881194B1222A3F81C21002399
S31508003ED47B7509E07A7D7B7D03331949895C154A2C
S31508003EE4D1547B7D01337B757B7D0E2BF2D9154B23
S31508003EF41A78104B1A74134B5A780E4B5A740123BA
S31508003F04BB75B8E1FB7D002B40F0B781074B122245
S31508003F14A3F81C2100237B7520E000BFA40200201F
S31508003F2460080020A40900209E0200202C0100201D
S31508003F3438C40008A408002028C400085C0200202D
S31508003F44E4C300089C0200207A7D7B7D0333A049E4
S31508003F54895CA04AD1547B7D01337B757B7D0E2B0E
S31508003F64F2D99D4B1A789B4B1A749B4B5A78994BEA
S31508003F745A740123BB7580E1FB7D002B40F07F81D9
S31508003F84964B0F22A3F81C2100237B7509E07A7D42
S31508003F947B7D03339249895C8E4AD1547B7D0133F8
S31508003FA47B757B7D0B2BF2D90123BB7567E1FB7D02
S31508003FB4002B40F06681894B1222A3F81C210023AA
S31508003FC47B7509E07A7D7B7D03338649895C814A62
S31508003FD4D1547B7D01337B757B7D0E2BF2D9824BC5
S31508003FE41A787C4B1A74804B5A787A4B5A74012384
S31508003FF4BB7546E1FB7D002B40F04581774B1222C9
S31508004004A3F81C2100237B7509E07A7D7B7D0333A5
S315080040147449895C6F4AD1547B7D01337B757B7DFA
S315080040240E2BF2D9704B1A786A4B1A746E4B5A785F
S31508004034684B5A740123BB7525E1FB7D002B40F0C0
S3150800404424816A4B1B78FB80FB881B099BB2DBB275
S315080040543033DAB2664B1A74FB88DBB203F00F030B
S31508004064DBB23033DAB2624B5A74604B5B78FB804E
S31508004074FB881B099BB2DBB23033DAB25C4B9A7409
S31508004084FB88DBB203F00F03DBB23033DAB2584BEA
S31508004094DA74524B1722A3F81C2100237B7509E016
S315080040A47A7D7B7D03335249895C4A4AD1547B7DA8
S315080040B401337B757B7D132BF2D90123BB75E4E0B1
S315080040C4FB7D002B40F0E380444B1722A3F81C2108
S315080040D400237B7509E07A7D7B7D03334549895C3A
S315080040E43C4AD1547B7D01337B757B7D132BF2D9F6
S315080040F40123BB75CBE0FB7D002B40F0CA803E4B09
S3150800410405229A7348F21B531B0A9BB2DAB23A4B3E
S315080041149A7448F21B53DAB2374BDA74B9E0FB7D6A
S31508004124002B40F0B8802D4B1322A3F81C21002342
S315080041347B7509E07A7D7B7D03333049895C254AA2
S31508004144D1547B7D01337B757B7D0F2BF2D94FF4DC
S3150800415400731B0A9BB2DBB23033DAB21D4BDA7337
S315080041644FF400731B099BB2DAB21A4B5A74194BF3
S315080041745B7C03F00F03DBB23033DAB2154B5A74A7
S315080041844FF40073DBB203F00F03DBB23033DAB259
S31508004194104B9A740123BB757DE0FB7D002B7CD103
S315080041A4154B05229A7300231B0A9BB2DAB2124BEB
S315080041B49A740023DAB2104BDA746EE0FB7D002B96
S315080041C46DD1064B0B22A3F81C2100237B7521E035
S315080041D4E4C30008A40800209C0200202C01002047
S315080041E4F4C3000800C40008980200209C080020B4
S315080041F47002002084020020A409002018C40008C4
S315080042047A7D7B7D03334149895C414AD1547B7D60
S3150800421401337B757B7D072BF2D90123BB753EE001
S31508004224FB7D002B3DD13B4B07229A7300237B75FC
S315080042340BE07A7D7B7D04333749895C354A134420
S315080042440A469A737B7D01337B757B7D032BF0D9F4
S3150800425427E0304B12225A740123FB7522E02D4BBA
S3150800426412225A740123FB751CE000BF1AE000BF32
S3150800427418E000BF16E000BF14E000BF12E000BF5C
S3150800428410E000BF0EE000BF0CE000BF0AE000BF6C
S3150800429408E000BF06E000BF04E000BF02E000BF7C
S315080042A400E000BFFB7D012B0CD11A4B03229A7345
S315080042B4184B7F22DA73174B22221A74154B0122E4
S315080042C41A7320E0BB7D012B0DD1114B62221A70A3
S315080042D4124B9A790E4B5A70104BDA790C4B9A702A
S315080042E400F016FB0FE00B4B6222DA730B4B9A793C
S315080042F4084B1A74094BDA79064B5A74054B012292
S315080043041A7300E000BF1837BD4680BD10C4000804
S31508004314A4080020A409002044C40008600800205A
S3150800432480B586B000AF0023FB750023FB74002319
S315080043347B750023FB600023BB60A84B1B7803F046
S315080043440103DBB2002B04D1A44A137843F010030B
S315080043541370A24B1B7803F00203DBB2002B00F0A8
S3150800436420829F4BB3F81C31013BDA0F13445B10D0
S31508004374FB71FB79032B05D99A4B31225A74012315
S31508004384FB7508E0984B1B78012B04D1954B222228
S315080043945A740123FB75954B0122A3F81C217B7DD6
S315080043A45A1C7A751A46924B622199540023BB7596
S315080043B4DFE1BB7D5B000333894AD35CF12B40F014
S315080043C4D581BB7D02335B00854AD35C873B152BBD
S315080043D400F2B98101A252F823F000BF0D45000886
S315080043E44B4700084B4700084B4700084B47000853
S315080043F4394400084B4700084B4700084B47000858
S315080044044B4700084B470008A34400080946000820
S31508004414774500084B4700084B4700084B470008F8
S31508004424E34600084B4700084B4700084B4700087B
S3150800443477460008FB7D002B40F08B816B4BB3F865
S315080044441C310E339AB2694BA3F81C21BB7D5B0061
S31508004454DA1C7B7D591C79751946614B9A5C644B49
S315080044645A54BB7D02335A007B7D591C797519460B
S315080044745B4B9A5C5E4B5A5400233B750BE03A7DC2
S315080044847B7D591C797519465A4B9A5C584B5A5474
S315080044943B7D01333B753B7D0B2BF0D959E1FB7D05
S315080044A4002B40F05881514BB3F81C3111339AB2A2
S315080044B44E4BA3F81C21BB7D5B00DA1C7B7D591C83
S315080044C479751946464B9A5C494B5A54BB7D023357
S315080044D45A007B7D591C79751946414B9A5C444BA5
S315080044E45A5400233B750BE03A7D7B7D591C79753C
S315080044F41946414B9A5C3E4B5A543B7D01333B75F6
S315080045043B7D0E2BF0D926E1FB7D002B40F025815F
S31508004514364BB3F81C310E339AB2344BA3F81C212C
S31508004524BB7D5B00DA1C7B7D591C797519462C4BBF
S315080045349A5C2F4B5A54BB7D02335A007B7D591C17
S3150800454479751946264B9A5C294B5A5400233B75B0
S315080045540BE03A7D7B7D591C79751946274B9A5C85
S31508004564234B5A543B7D01333B753B7D0B2BF0D9CA
S31508004574F3E0FB7D002B40F0F2801C4BB3F81C31B2
S3150800458411339AB2194BA3F81C21BB7D5B00DA1CC4
S315080045947B7D591C79751946114B9A5C144B5A54F0
S315080045A4BB7D02335A007B7D591C797519460C4B21
S315080045B49A5C0F4B5A5400233B750BE03A7D7B7D7E
S315080045C4591C797519460E4B9A5C094B5A543B7D0E
S315080045D401333B753B7D0E2BF0D9C0E0A4020020C5
S315080045E404000020A40900209E0200202C010020BB
S315080045F4A408002038C40008E4C30008F4C300086B
S3150800460400C40008FB7D002B40F0AB80674BB3F871
S315080046141C3104339AB2654BA3F81C21BB7D5B009D
S31508004624DA1C7B7D591C79751946614B9A5C614B7A
S315080046345A54BB7D02335A007B7D591C7975194639
S315080046445B4B9A5C5B4B5A5448F21B531B0A99B250
S315080046547B7D5A1C7A751A46C9B2564B995448F248
S315080046641B517B7D5A1C7A751A46C9B2514B99540B
S3150800467477E0FB7D002B76D14C4BB3F81C31123313
S315080046849AB24A4BA3F81C21BB7D5B00DA1C7B7DDE
S31508004694591C79751946464B9A5C464B5A54BB7D48
S315080046A402335A007B7D591C79751946404B9A5C2E
S315080046B4404B5A544FF400731B0A99B27B7D5A1C1B
S315080046C47A751A46C9B23B4B99544FF400717B7DEF
S315080046D45A1C7A751A46C9B2364B995443E0FB7D7F
S315080046E4002B42D1314BB3F81C3104339AB22F4B09
S315080046F4A3F81C21BB7D5B00DA1C7B7D591C7975EC
S3150800470419462B4B9A5C2B4B5A54BB7D02335A00E1
S315080047147B7D591C79751946254B9A5C254B5A5449
S3150800472400231B0A99B27B7D5A1C7A751A46C9B2AC
S31508004734204B995400217B7D5A1C7A751A46C9B2B6
S315080047441C4B995411E01C4B12225A740123FB7515
S315080047540CE000BF0AE000BF08E000BF06E000BFA7
S3150800476404E000BF02E000BF00E000BFBB7D0133E8
S31508004774BB75BA7DFB799A42FFF41BAEFB7D012B10
S315080047840CD10D4B03229A730B4B7F22DA730A4B17
S3150800479422221A74084B01221A7303E000F0B8F8AF
S315080047A400E000BF1837BD4680BD00BF2C010020BD
S315080047B404000020A4080020A409002080B483B0C3
S315080047C400AF0023FB713B4B1B7803F00103DBB2FC
S315080047D4002B04D1374A137843F010031370354B72
S315080047E41B7803F00203DBB2002B5CD0324B1B7838
S315080047F4012B05D1314B7F225A740123FB7119E031
S315080048042F4B1B7803F00303DBB2002B05D12B4B8C
S3150800481433225A740123FB710CE02A4B5B7C012B6F
S3150800482408D1284B1B7C072B04D9244B13225A7412
S315080048340123FB71FB79002B08D1234B1B78012B31
S3150800484404D11E4B22225A740123FB71FB79012BD6
S3150800485409D11A4B03229A73184B7F22DA73174B22
S315080048642E221A741BE0154B03229A73134B6E22DD
S31508004874DA73164B93F82331012B08D1134BDA78E4
S315080048840E4B1A74114B1A790C4B5A7407E00D4BDC
S315080048949A790A4B1A740B4BDA79084B5A74074BF4
S315080048A401221A7300E000BF0C37BD465DF8047B8D
S315080048B4704700BFA4020020A0020020A40900201B
S315080048C4D4090020600800209E020020040000206D
S315080048D480B483B000AF0423FB7109E0FA79FB794D
S315080048E4043B0949895C094AD154FB790133FB71B4
S315080048F4FB79132BF2D9054B00221A7400BF0C3727
S31508004904BD465DF8047B704704000020C0090020FA
S3150800491480B483B000AF8D4B042283F822218B4BDD
S31508004924032283F81F21894B322283F82121884BDD
S315080049341B68864AC2F81431844B10221A70834BBA
S31508004944B3F81C31DAB2814B5A700623FB717F4BDC
S31508004954012283F824210AE07C4B93F8243101339D
S31508004964DAB27A4B83F82421FB790733FB71774B48
S31508004974B3F81C21FB799BB29A42EDD8734B93F892
S315080049842431BB710223FB7109E0FB799A1EFB797A
S315080049947049895C6D4AD154FB790133FB71FB7903
S315080049A4072BF2D9BB79002B02D0BB79013BBB712B
S315080049B4664B21221A720923FB7109E0FB79DA1E78
S315080049C4FB796449895C614AD154FB790133FB71EB
S315080049D4FB790F2B02D8BB79002BEFD1BB79002BBF
S315080049E402D0BB79013BBB71584B22221A7411239E
S315080049F4FB7109E0FB791A1FFB795649895C534A0E
S31508004A04D154FB790133FB71FB79172B02D8BB7997
S31508004A14002BEFD1BB79002B02D0BB79013BBB71CC
S31508004A244A4B23221A761923FB7109E0FB795A1F8C
S31508004A34FB794849895C454AD154FB790133FB71B2
S31508004A44FB791F2B02D8BB79002BEFD1BB79002B3E
S31508004A5402D0BB79013BBB713C4B242283F820204E
S31508004A642123FB7109E0FB799A1FFB793949895C93
S31508004A74364AD154FB790133FB71FB79272B02D8CB
S31508004A84BB79002BEFD1BB79002B02D0BB79013B54
S31508004A94BB712E4B252283F828202923FB7109E0B4
S31508004AA4FB79DA1FFB792B49895C284AD154FB79AF
S31508004AB40133FB71FB792F2B02D8BB79002BEFD17D
S31508004AC4BB79002B02D0BB79013BBB711F4B262255
S31508004AD483F830203123FB710AE0FB79A3F108023D
S31508004AE4FB791C49895C194AD154FB790133FB715A
S31508004AF4FB79372B02D8BB79002BEED1164B1B78E2
S31508004B04F12B08D1114BD3F8143143F471430F4AEE
S31508004B14C2F8143107E00D4BD3F8143143F4794342
S31508004B240A4AC2F81431094BD3F8143143F017036F
S31508004B34064AC2F81431054B012283F8232100BF23
S31508004B440C37BD465DF8047B704700BF2C01002076
S31508004B5474080020A40800207806002080B582B0D6
S31508004B6400AFAA4B1B7803F01003DBB2002B40F00E
S31508004B745E82A74B1B7B012B39D1A64B1B68A44A23
S31508004B841360A54B1B78F12B06D1A14B1B6843F484
S31508004B9471439F4A136005E09D4B1B6843F47943B0
S31508004BA49B4A13609A4B1B6843F01703984A136091
S31508004BB4974B1B68994A1360994A9849994802F091
S31508004BC4D4F9934B00221A730023FB800CE0FB886C
S31508004BD48F4A134400229A73FB88934A134400228B
S31508004BE41A71FB880133FB80FB88072BEFD98F4B9F
S31508004BF493F82331012B40F047818C4B93F82231EB
S31508004C04042B39D1894B93F81F31032B34D1884BA4
S31508004C1400221A70854BD3F81431804A1360844BEA
S31508004C241B781A46814B13441A467C497D4802F080
S31508004C349CF901F017F903467E4A13607B4B93F8F7
S31508004C441E310133DAB2794B83F81E21774B93F878
S31508004C541E31DB00DAB2764B1A7001F003F903460B
S31508004C64724AC2F81831714B012283F81F216F4B1F
S31508004C74012283F822213AE101F0F4F802466B4B4B
S31508004C84D3F81831D31A694A92F82121934240F28B
S31508004C94DF80664B93F81F31002B40F0D980634BB5
S31508004CA493F82031002B57D1604B93F81E215F4BA4
S31508004CB493F824319A4242D25C4BD3F81431574ABA
S31508004CC413605B4B1B781A46584B13441A465349D0
S31508004CD4544802F04AF901F0C5F80346554A1360E8
S31508004CE4524B93F81E310133DAB2504B83F81E2126
S31508004CF44E4B93F81E31DB00DAB24D4B1A7001F0B5
S31508004D04B1F80346494AC2F81831484B022283F8D7
S31508004D142221464B93F81E21444B93F824319A4298
S31508004D24C0F0E480414B052283F822213F4B04223C
S31508004D3483F81F213D4B002283F82321D6E03B4B01
S31508004D44052283F82221394B042283F81F21374B85
S31508004D54002283F82321C9E0344B93F81E21334BF0
S31508004D6493F820319A4267D2304B93F820212F4B7F
S31508004D7493F824319A425FD82C4B93F81E31DB0002
S31508004D84DAB22B4B1A70294BD3F81431234A136021
S31508004D94274B1B781A46254B13441A461F492148A4
S31508004DA402F0E3F801F05EF80346224A13601F4B4B
S31508004DB493F81E310133DAB21C4B83F81E211B4BC0
S31508004DC493F81E31DB00DAB2194B1A7001F04AF86F
S31508004DD40346164AC2F81831144B022283F82221D4
S31508004DE4124B93F82021114B93F824319A422ED171
S31508004DF40E4B052283F822210C4B042283F81F212B
S31508004E040A4B002283F8232121E000BFA4020020D4
S31508004E14A40900207408002078060020F809002058
S31508004E24B2090020680A0020600800202C0100202E
S31508004E34F70900205C0800207F4B012283F81F2114
S31508004E4401F010F803467C4AC2F818314EE04DE0EA
S31508004E5401F008F80246784BD3F81831D31AB3F59B
S31508004E64BC7F04D2744B93F81F31022B3FD1724B8B
S31508004E74062283F82221704B042283F81F216E4BE5
S31508004E84002283F8232132E06B4B93F82231042B5A
S31508004E940ED8694B93F81F31012B28D100F0E2FF95
S31508004EA40246654BD3F81831D31AB3F5BC7F1ED323
S31508004EB4614B042283F822210023FB800AE0FB8845
S31508004EC45D4A0021D154FB885C4A0021D154FB88F1
S31508004ED40133FB80FB88FE2BF1D9574B032283F859
S31508004EE41F21554B002283F81E2100E000BF544BB6
S31508004EF493F82231012B2ED1514B93F81F31012BF4
S31508004F0429D1504B1B78F12B06D14D4BD3F81431CC
S31508004F1443F471433B6005E0494BD3F8143143F439
S31508004F2479433B603B6843F017033B60464B3022AA
S31508004F341A70464A3B681360434A4449444802F097
S31508004F4414F83F4B002283F81F2100F08BFF034619
S31508004F54404A13603AE03A4B93F82231062B35D18E
S31508004F64374B93F81F31022B30D1354BD3F8143114
S31508004F74394A1360334B1B78F12B06D1364B1B6821
S31508004F8443F47143344A136005E0334B1B6843F416
S31508004F947943314A1360304B1B6843F017032E4A92
S31508004FA41360294B32221A702B4B1B68274A13604D
S31508004FB4254A2649264801F0D8FF214B002283F8C2
S31508004FC41F2100F04FFF0346224A13601C4B93F837
S31508004FD42231042B2CD90023FB8006E0FB88184ACF
S31508004FE40021D154FB880133FB80FB88FE2BF5D9BD
S31508004FF4134B042283F82221114B052283F81F211F
S315080050040F4B002283F81E210D4B002283F823211F
S315080050140023FB8007E0FB88104A134400221A7118
S31508005024FB880133FB80FB88072BF4D900E000BF1B
S315080050340837BD4680BD00BF2C010020A408002007
S31508005044040000207806002054020020F8090020F5
S31508005054680A00205C080020A409002060080020D3
S3150800506480B582B000AF0023FB711A4B1B7803F09E
S315080050741003DBB2002B0BD000F0F4FE0246154BEE
S315080050845B68D31A41F29412934201D900F028F8C6
S3150800509400F0E8FE0246104B1B68D31A40F6C41209
S315080050A4934212D900F02CFE0346FB71FB79012BBF
S315080050B403D10A4B01221A7005E0084B02221A7022
S315080050C4064B55221A7000F00BF800BF0837BD4688
S315080050D480BD00BFD40900205C080020A00200207F
S315080050E480B582B000AF304A13786FF30413137097
S315080050F42E4B002283F823212C4B042283F82221E9
S31508005104294A13786FF301031370274B00225A7048
S31508005114254A13786FF3471313700023FB800EE0B8
S31508005124FB88224A0021D154FB88214A0021D15404
S31508005134FB88204A0021D154FB880133FB80FB8875
S31508005144FE2BEDD91B4B042283F82221194B93F825
S315080051542221164B83F82221144B032283F81F219C
S31508005164144B002283F81E21124B93F81E210F4B71
S3150800517483F81E210F4B002283F823210D4B93F845
S3150800518423210A4B83F823210A4B052283F81F217E
S31508005194094B00221A70094B01221A70FDF77CFA92
S315080051A400BF0837BD4680BDD40900202C01002065
S315080051B4A4080020040000209E0800209F02002066
S315080051C480B500AFFFF78CFF034B00221A70034B20
S315080051D4F1221A7000BF80BD9E02002078060020C6
S315080051E480B400AF034B1B881846BD465DF8047BA4
S315080051F4704700BFA008002080B400AF034B1B789B
S315080052041846BD465DF8047B704700BFA208002017
S3150800521480B400AF034B1B781846BD465DF8047B83
S31508005224704700BFBE09002080B400AF034B1B784B
S315080052341846BD465DF8047B704700BFBF090020C9
S3150800524480B400AF034B00221A7000BFBD465DF858
S31508005254047B7047BF09002080B400AFBFF34F8FAB
S3150800526400BF064BDB6803F4E0620449044B1343AE
S31508005274CB60BFF34F8F00BF00BFFDE700ED00E032
S315080052840400FA0580B584B000AF0023FB7300233D
S31508005294BB730023BB600023FB7101F015F900F012
S315080052A415F902F029FB00F09DFA00F043FAFCF721
S315080052B409F9FCF7A3F8FCF77FF90346FB73FB7BB4
S315080052C4022B34D100F08EFA01224FF400417448BF
S315080052D402F0AAFE00228021724802F0A5FE00F020
S315080052E475F900F049FA00F04FF900F023FA27207F
S315080052F401F082FA282001F07FFA002201216A4887
S3150800530401F080FF00220821674801F07BFF002294
S315080053144FF40021644801F075FF00F00BFBFCF71D
S31508005324D5FBFFF74DFF614805F0CCFA03E072B6EA
S3150800533400BF00F05FFD5E4B1B78072B62D801A205
S3150800534452F823F069530008095400080954000860
S31508005354095400089953000809540008F55300082D
S315080053640354000800F07EFD03469AB2514B1A8096
S3150800537405E000F087FC03461A464F4B1A7000F006
S3150800538471FD03464B4A12889B1A312BF1D900F05A
S31508005394BDF937E0FCF794FBFCF730FE00F06EFD30
S315080053A4FFF7DCFBFFF75CFE00F05CFD0346434AAF
S315080053B412889B1AB3F5FA7F10D900F053FD0346F9
S315080053C49AB23E4B1A803E4B1B78002B03D03C4BBB
S315080053D400221A7002E03A4B01221A7000F02CFCE3
S315080053E403461A46344B1A70364802F0D2FE09E0D0
S315080053F400F048FC03461A462F4B1A7002E000F0E8
S31508005404B1FD00BF2A4B1B78002B0BD12A4B1B7806
S31508005414012B03D1264B04221A708CE7244B06224F
S315080054241A7088E7224B1B78042B25D1224B1B784C
S31508005434002B02D11E4B06221A70FFF7E9FE03461B
S315080054441A46214B1A70204B1B78012B0DD100F0FC
S3150800545409FD0346174A12889B1AB3F5FA7F7FF6A5
S315080054646AAF134B07221A7065E700F0FBFC034684
S315080054749AB2104B1A805EE70D4B1B78062B7FF405
S315080054845AAF00F0FFFB03461A460B4B1A700A4B39
S315080054941B78012B7FF44FAF054B04221A704AE799
S315080054A400040242000C0242680A0020E00A0020B6
S315080054B44C0B00204E0B0020500B0020520B0020F2
S315080054C4A6020020CC0A0020540B002080B59EB00A
S315080054D400AF07F1180360220021184605F099FF6A
S315080054E43B4600221A605A609A60DA601A615A6169
S315080054F44FF4403002F05EFE0346002B01D000F064
