S00B00004E33432E7372656355
S3150801C00000002F203DB5020809B2020849B202080C
S3150801C01051B2020859B2020861B202088DB5020886
S3150801C02000000000000000000000000069B20208DC
S3150801C03077B202080000000085B2020893B202082E
S3150801C0408DB502088DB502088DB502088DB50208B1
S3150801C0508DB502088DB502088DB502088DB50208A1
S3150801C0608DB502088DB502088DB502088DB5020891
S3150801C0708DB502088DB502088DB502088DB5020881
S3150801C0808DB502088DB502088DB502088DB5020871
S3150801C0908DB502088DB502088DB502088DB5020861
S3150801C0A08DB502088DB502088DB502088DB5020851
S3150801C0B08DB502088DB502088DB502088DB5020841
S3150801C0C08DB502088DB502088DB502088DB5020831
S3150801C0D08DB502088DB502088DB50208A1B2020810
S3150801C0E0B5B202088DB502088DB502088DB50208EC
S3150801C0F08DB502088DB502088DB50208C9B20208C8
S3150801C1008DB50208DDB20208F1B202088DB5020842
S3150801C1108DB502088DB502088DB502088DB50208E0
S3150801C1208DB502088DB502088DB5020805B302085A
S3150801C1308DB502088DB502088DB502088DB50208C0
S3150801C1408DB502088DB502088DB502088DB50208B0
S3150801C1508DB502088DB502088DB502088DB50208A0
S3150801C1608DB502088DB502088DB502088DB5020890
S3150801C1708DB502088DB502088DB502088DB5020880
S3150801C1808DB502088DB502088DB502088DB5020870
S3150801C1908DB502088DB502088DB502088DB5020860
S3150801C1A08DB502088DB502088DB502088DB5020850
S3150801C1B08DB502088DB502088DB502088DB5020840
S3150801C1C08DB502088DB502088DB502088DB5020830
S3150801C1D08DB502088DB502088DB502088DB5020820
S3150801C1E08DB502088DB502088DB502088DB5020810
S3150801C1F08DB502088DB502088DB502088DB5020800
S3150801C2008DB502088DB502088DB502088DB50208EF
S3150801C2108DB502088DB502088DB502088DB50208DF
S3150801C2208DB502088DB502088DB502088DB50208CF
S3150801C2308DB502088DB502088DB502088DB50208BF
S3150801C2408DB502088DB502088DB502088DB50208AF
S3150801C2508DB502088DB502088DB5020819B3020815
S3150801C2602DB30208000000008DB502088DB502083D
S3090801C2708DB502086F
S3150801C27410B5054C237833B9044B13B10448AFF30D
S3150801C28400800123237010BD2064092000000000EA
S3150801C2944028060808B5034B1BB103490348AFF305
S3150801C2A4008008BD0000000024640920402806080F
S3150801C2B480B485B000AF786039600023FB810AE059
S3150801C2C4FB893A681A44FB8979680B4412781A700F
S3150801C2D4FB890133FB81FB890F2BF1D90123FB81EF
S3150801C2E46AE1FB891B01043B7A6813441B78BB8109
S3150801C2F4FB891B01033B7A6813441B781A46AC4B2A
S3150801C3049A5CFB89013B1B0119467B680B441B7824
S3150801C3145340D9B2FB89A74AD25CFB891B0118464B
S3150801C3247B6803444A40D2B21A70FB891B01023B5B
S3150801C3347A6813441B781A469D4B995CFB89013B21
S3150801C3441B0101337A6813441A78FB891B010133EB
S3150801C354786803444A40D2B21A70FB891B01013B2F
S3150801C3647A6813441B781A46914B995CFB89013BFD
S3150801C3741B0102337A6813441A78FB891B010233B9
S3150801C384786803444A40D2B21A70BB89884AD15C98
S3150801C394FB89013B1B0103337A6813441A78FB8929
S3150801C3A41B010333786803444A40D2B21A70FB89E5
S3150801C3B4013B1B0104337A6813441978FB891B0171
S3150801C3C41A467B6813441A78FB891B010433786877
S3150801C3D403444A40D2B21A70FB89013B1B01053357
S3150801C3E47A6813441978FB891B0101337A68134463
S3150801C3F41A78FB891B010533786803444A40D2B28B
S3150801C4041A70FB89013B1B0106337A6813441978B0
S3150801C414FB891B0102337A6813441A78FB891B01C9
S3150801C4240633786803444A40D2B21A70FB89013B41
S3150801C4341B0107337A6813441978FB891B010333F3
S3150801C4447A6813441A78FB891B010733786803440D
S3150801C4544A40D2B21A70FB89013B1B0108337A6838
S3150801C46413441978FB891B0104337A6813441A782F
S3150801C474FB891B010833786803444A40D2B21A700F
S3150801C484FB89013B1B0109337A6813441978FB8933
S3150801C4941B0105337A6813441A78FB891B0109338E
S3150801C4A4786803444A40D2B21A70FB89013B1B01DE
S3150801C4B40A337A6813441978FB891B0106337A68A7
S3150801C4C413441A78FB891B010A33786803444A40E2
S3150801C4D4D2B21A70FB89013B1B010B337A681344E8
S3150801C4E41978FB891B0107337A6813441A78FB897F
S3150801C4F41B010B33786803444A40D2B21A70FB898C
S3150801C504013B1B010C337A6813441978FB891B0117
S3150801C51408337A6813441A78FB891B010C33786843
S3150801C52403444A40D2B21A70FB89013B1B010D33FD
S3150801C5347A6813441978FB891B0109337A68134409
S3150801C5441A78FB891B010D33786803444A40D2B231
S3150801C5541A70FB89013B1B010E337A681344197857
S3150801C564FB891B010A337A6813441A78FB891B0170
S3150801C5740E33786803444A40D2B21A70FB89013BE8
S3150801C5841B010F337A6813441978FB891B010B3392
S3150801C5947A6813441A78FB891B010F3378680344B4
S3150801C5A44A40D2B21A70FB890133FB8104E000BF09
S3150801C5B4D0370608D0390608FB890A2B7FF691AECF
S3150801C5C400BF00BF1437BD465DF8047B704700BF42
S3150801C5D480B483B000AF0346FB7197F90730002B8B
S3150801C5E407DAFB795B00FB71FB7983F01B03DBB28A
S3150801C5F402E0FB795B00DBB218460C37BD465DF8F1
S3150801C604047B704780B584B000AF7860396009232C
S3150801C614FB737B681A783B68A0331B785340DAB2FC
S3150801C6247B681A707B68013319783B68A1331A78D9
S3150801C6347B6801334A40D2B21A707B68023319788F
S3150801C6443B68A2331A787B6802334A40D2B21A701D
S3150801C6547B68033319783B68A3331A787B680333F9
S3150801C6644A40D2B21A707B68043319783B68A433FA
S3150801C6741A787B6804334A40D2B21A707B68053348
S3150801C68419783B68A5331A787B6805334A40D2B2D0
S3150801C6941A707B68063319783B68A6331A787B685F
S3150801C6A406334A40D2B21A707B68073319783B6855
S3150801C6B4A7331A787B6807334A40D2B21A707B6863
S3150801C6C4083319783B68A8331A787B6808334A40D3
S3150801C6D4D2B21A707B68093319783B68A9331A7878
S3150801C6E47B6809334A40D2B21A707B680A331978CF
S3150801C6F43B68AA331A787B680A334A40D2B21A705D
S3150801C7047B680B3319783B68AB331A787B680B3330
S3150801C7144A40D2B21A707B680C3319783B68AC3339
S3150801C7241A787B680C334A40D2B21A707B680D3387
S3150801C73419783B68AD331A787B680D334A40D2B20F
S3150801C7441A707B680E3319783B68AE331A787B689E
S3150801C7540E334A40D2B21A707B680F3319783B6894
S3150801C764AF331A787B680F334A40D2B21A707B68A2
S3150801C7741B781A46914B9A5C97F90F301B01194697
S3150801C7843B680B441B785340DAB27B681A707B68A2
S3150801C79404331B781A46894B995C97F90F301B01A8
S3150801C7A404333A6813441A787B6804334A40D2B28C
S3150801C7B41A707B6808331B781A46804B995C97F97B
S3150801C7C40F301B0108333A6813441A787B68083317
S3150801C7D44A40D2B21A707B680C331B781A46774BD7
S3150801C7E4995C97F90F301B010C333A6813441A788C
S3150801C7F47B680C334A40D2B21A707B680D331B78B6
S3150801C8041A466E4B9A5C97F90F301B010133396846
S3150801C8140B441B785340BB737B6809331B781A4650
S3150801C824664B995C97F90F301B010D333A6813442B
S3150801C8341A787B680D334A40D2B21A707B6805337D
S3150801C8441B781A465D4B995C97F90F301B0109331E
S3150801C8543A6813441A787B6809334A40D2B21A7083
S3150801C8647B6801331B781A46544B995C97F90F3048
S3150801C8741B0105333A6813441A787B6805334A4021
S3150801C884D2B21A707B680133BA7B1A707B68023399
S3150801C8941B781A46494B9A5C97F90F301B010A33E0
S3150801C8A439680B441B785340BB737B6806331B7882
S3150801C8B41A46424B9A5C97F90F301B010E333968B5
S3150801C8C40B441B7853407B737B680A331B781A46DF
S3150801C8D43A4B995C97F90F301B0102333A681344B2
S3150801C8E41A787B6802334A40D2B21A707B680E33CF
S3150801C8F41B781A46314B995C97F90F301B0106339D
S3150801C9043A6813441A787B6806334A40D2B21A70D5
S3150801C9147B680A33BA7B1A707B680E337A7B1A7082
S3150801C9247B6803331B781A46244B9A5C97F90F30B4
S3150801C9341B010F3339680B441B785340BB737B685F
S3150801C94407331B781A461D4B995C97F90F301B015F
S3150801C95403333A6813441A787B6803334A40D2B2DC
S3150801C9641A707B680B331B781A46144B995C97F932
S3150801C9740F301B0107333A6813441A787B68073367
S3150801C9844A40D2B21A707B680F331B781A460B4B8E
S3150801C994995C97F90F301B010B333A6813441A78DB
S3150801C9A47B680B334A40D2B21A707B680F33BA7B61
S3150801C9B41A700823FB7300F028BC00BFD038060898
S3150801C9C47B681A787B6802331B785340DBB21846B6
S3150801C9D4FFF7FEFD03461846FFF7FAFD0346BB7348
S3150801C9E47B6801331A787B6803331B785340DBB2BF
S3150801C9F41846FFF7EDFD03461846FFF7E9FD03461A
S3150801CA047B737B681A78BB7B5340DAB27B681A70EE
S3150801CA147B68013319787B6801337A7B4A40D2B241
S3150801CA241A707B68023319787B680233BA7B4A40E9
S3150801CA34D2B21A707B68033319787B6803337A7B1D
S3150801CA444A40D2B21A707B6804331A787B68063373
S3150801CA541B785340DBB21846FFF7BAFD034618465E
S3150801CA64FFF7B6FD0346BB737B6805331A787B6803
S3150801CA7407331B785340DBB21846FFF7A9FD034673
S3150801CA841846FFF7A5FD03467B737B6804331978BB
S3150801CA947B680433BA7B4A40D2B21A707B68053381
S3150801CAA419787B6805337A7B4A40D2B21A707B6857
S3150801CAB4063319787B680633BA7B4A40D2B21A70B0
S3150801CAC47B68073319787B6807337A7B4A40D2B285
S3150801CAD41A707B6808331A787B680A331B785340C3
S3150801CAE4DBB21846FFF774FD03461846FFF770FDD7
S3150801CAF40346BB737B6809331A787B680B331B7847
S3150801CB045340DBB21846FFF763FD03461846FFF7A1
S3150801CB145FFD03467B737B68083319787B680833A2
S3150801CB24BA7B4A40D2B21A707B68093319787B6892
S3150801CB3409337A7B4A40D2B21A707B680A33197868
S3150801CB447B680A33BA7B4A40D2B21A707B680B33C4
S3150801CB5419787B680B337A7B4A40D2B21A707B68A0
S3150801CB640C331A787B680E331B785340DBB21846AC
S3150801CB74FFF72EFD03461846FFF72AFD0346BB7346
S3150801CB847B680D331A787B680F331B785340DBB205
S3150801CB941846FFF71DFD03461846FFF719FD034618
S3150801CBA47B737B680C3319787B680C33BA7B4A40F0
S3150801CBB4D2B21A707B680D3319787B680D337A7B88
S3150801CBC44A40D2B21A707B680E3319787B680E33E1
S3150801CBD4BA7B4A40D2B21A707B680F3319787B68DC
S3150801CBE40F337A7B4A40D2B21A707B681A787B680B
S3150801CBF401331B785340DAB27B6802331B785340FE
S3150801CC04DAB27B6803331B785340BB737B681B78A2
S3150801CC147B737B681A787B6801331B7853403B73B3
S3150801CC243B7B1846FFF7D4FC03463B737B681A78AB
S3150801CC343B7B5340DAB2BB7B5340DAB27B681A704A
S3150801CC447B6801331A787B6802331B7853403B733C
S3150801CC543B7B1846FFF7BCFC03463B737B680133F1
S3150801CC641A783B7B5340D9B27B680133BA7B4A4075
S3150801CC74D2B21A707B6802331A787B6803331B783D
S3150801CC8453403B733B7B1846FFF7A2FC03463B73B1
S3150801CC947B6802331A783B7B5340D9B27B680233EB
S3150801CCA4BA7B4A40D2B21A707B6803331A787B7B03
S3150801CCB453403B733B7B1846FFF78AFC03463B7399
S3150801CCC47B6803331A783B7B5340D9B27B680333B9
S3150801CCD4BA7B4A40D2B21A707B6804331A787B68E5
S3150801CCE405331B785340DAB27B6806331B78534005
S3150801CCF4DAB27B6807331B785340BB737B681B79AD
S3150801CD047B737B6804331A787B6805331B78534035
S3150801CD143B733B7B1846FFF75BFC03463B737B6817
S3150801CD2404331A783B7B5340D9B27B680433BA7B04
S3150801CD344A40D2B21A707B6805331A787B6806337F
S3150801CD441B7853403B733B7B1846FFF741FC03466C
S3150801CD543B737B6805331A783B7B5340D9B27B68AE
S3150801CD640533BA7B4A40D2B21A707B6806331A78FD
S3150801CD747B6807331B7853403B733B7B1846FFF7A5
S3150801CD8427FC03463B737B6806331A783B7B53407F
S3150801CD94D9B27B680633BA7B4A40D2B21A707B6829
S3150801CDA407331A787B7B53403B733B7B1846FFF763
S3150801CDB40FFC03463B737B6807331A783B7B534066
S3150801CDC4D9B27B680733BA7B4A40D2B21A707B68F8
S3150801CDD408331A787B6809331B785340DAB27B68BF
S3150801CDE40A331B785340DAB27B680B331B785340FA
S3150801CDF4BB737B681B7A7B737B6808331A787B68F9
S3150801CE0409331B7853403B733B7B1846FFF7E0FB1A
S3150801CE1403463B737B6808331A783B7B5340D9B284
S3150801CE247B680833BA7B4A40D2B21A707B680933E5
S3150801CE341A787B680A331B7853403B733B7B184645
S3150801CE44FFF7C6FB03463B737B6809331A783B7BBA
S3150801CE545340D9B27B680933BA7B4A40D2B21A70B5
S3150801CE647B680A331A787B680B331B7853403B7308
S3150801CE743B7B1846FFF7ACFB03463B737B680A33D7
S3150801CE841A783B7B5340D9B27B680A33BA7B4A404A
S3150801CE94D2B21A707B680B331A787B7B53403B7387
S3150801CEA43B7B1846FFF794FB03463B737B680B33BE
S3150801CEB41A783B7B5340D9B27B680B33BA7B4A4019
S3150801CEC4D2B21A707B680C331A787B680D331B78D7
S3150801CED45340DAB27B680E331B785340DAB27B6867
S3150801CEE40F331B785340BB737B681B7B7B737B684F
S3150801CEF40C331A787B680D331B7853403B733B7BA1
S3150801CF041846FFF765FB03463B737B680C331A78AF
S3150801CF143B7B5340D9B27B680C33BA7B4A40D2B2C5
S3150801CF241A707B680D331A787B680E331B78534065
S3150801CF343B733B7B1846FFF74BFB03463B737B6806
S3150801CF440D331A783B7B5340D9B27B680D33BA7BD0
S3150801CF544A40D2B21A707B680E331A787B680F334B
S3150801CF641B7853403B733B7B1846FFF731FB03465B
S3150801CF743B737B680E331A783B7B5340D9B27B6883
S3150801CF840E33BA7B4A40D2B21A707B680F331A78C9
S3150801CF947B7B53403B733B7B1846FFF719FB0346E0
S3150801CFA43B737B680F331A783B7B5340D9B27B6852
S3150801CFB40F33BA7B4A40D2B21A707B681B781A4679
S3150801CFC4974B9A5C97F90F301B0119463B680B443A
S3150801CFD41B785340DAB27B681A707B6804331B7872
S3150801CFE41A468F4B995C97F90F301B0104333A683B
S3150801CFF413441A787B6804334A40D2B21A707B68A0
S3150801D00408331B781A46864B995C97F90F301B012E
S3150801D01408333A6813441A787B6808334A40D2B20B
S3150801D0241A707B680C331B781A467D4B995C97F901
S3150801D0340F301B010C333A6813441A787B680C3396
S3150801D0444A40D2B21A707B680D331B781A46744B60
S3150801D0549A5C97F90F301B01013339680B441B7825
S3150801D0645340BB737B6809331B781A466C4B995C2E
S3150801D07497F90F301B010D333A6813441A787B6804
S3150801D0840D334A40D2B21A707B6805331B781A46A7
S3150801D094634B995C97F90F301B0109333A681344BA
S3150801D0A41A787B6809334A40D2B21A707B6801330D
S3150801D0B41B781A465A4B995C97F90F301B010533AD
S3150801D0C43A6813441A787B6805334A40D2B21A700F
S3150801D0D47B680133BA7B1A707B6802331B781A465C
S3150801D0E44F4B9A5C97F90F301B010A3339680B4485
S3150801D0F41B785340BB737B6806331B781A46484B27
S3150801D1049A5C97F90F301B010E3339680B441B7867
S3150801D11453407B737B680A331B781A46404B995CE8
S3150801D12497F90F301B0102333A6813441A787B685E
S3150801D13402334A40D2B21A707B680E331B781A46F8
S3150801D144374B995C97F90F301B0106333A68134438
S3150801D1541A787B6806334A40D2B21A707B680A3356
S3150801D164BA7B1A707B680E337A7B1A707B68033331
S3150801D1741B781A462A4B9A5C97F90F301B010F3311
S3150801D18439680B441B785340BB737B6807331B7898
S3150801D1941A46234B995C97F90F301B0103333A68F6
S3150801D1A413441A787B6803334A40D2B21A707B68EF
S3150801D1B40B331B781A461A4B995C97F90F301B01E6
S3150801D1C407333A6813441A787B6807334A40D2B25C
S3150801D1D41A707B680F331B781A46114B995C97F9B9
S3150801D1E40F301B010B333A6813441A787B680B33E7
S3150801D1F44A40D2B21A707B680F33BA7B1A7097F910
S3150801D2040F30DBB2013BDBB2FB7397F90F30002B0E
S3150801D214BFF6D6AB00BF00BF1037BD4680BD00BF01
S3150801D224D038060880B5AEB000AF7860396007F12A
S3150801D234080339681846FFF73BF807F10803194646
S3150801D2447868FFF7DFF900BFB837BD4680BD00002F
S3150801D25480B584B000AF0023FB6000237B60002304
S3150801D264FB720A2002F0A2FDF860FB68322202FB77
S3150801D27403F32C4AA2FB03235B09FB600A2003F090
S3150801D28407FC0346012B06D00A2002F08FFD03464C
S3150801D294B3F57E4F01D30023FB60234B1B78FA6851
S3150801D2A491B2224A5B0013440A469A801E4B1B78A4
S3150801D2B40133DAB21C4B1A701B4B1B78032B02D9A8
S3150801D2C4194B00221A700023FB600023FB720BE042
S3150801D2D4FB7A164A5B0013449B881A46FB68134477
S3150801D2E4FB60FB7A0133FB72FB7A032BF0D9FB68EB
S3150801D2F49B08FB60FB689BB21A460C4B1A600B4BE6
S3150801D3041B689AB20A4B1A80094B1B88B3F57A7FB4
S3150801D31403D3074B40F2E7321A8000BF1037BD46E4
S3150801D32480BD00BF1F85EB51506409204064092064
S3150801D3343C64092080B400AF034B1B881846BD46DC
S3150801D3445DF8047B704700BF3C64092080B582B050
S3150801D35400AF0123FB7106F057FD0346FB71FB7908
S3150801D364013B092B5CD801A252F823F099D3010891
S3150801D374A7D30108B5D30108C3D30108D1D301083A
S3150801D384DFD30108EDD30108FBD3010809D4010849
S3150801D39417D401080A200DF021FA244B01221A7028
S3150801D3A43FE014200DF01AFA204B02221A7038E0D5
S3150801D3B41E200DF013FA1D4B03221A7031E02820A2
S3150801D3C40DF00CFA194B04221A702AE032200DF0DA
S3150801D3D405FA164B05221A7023E03C200DF0FEF9D6
S3150801D3E4124B06221A701CE046200DF0F7F90F4B72
S3150801D3F407221A7015E050200DF0F0F90B4B08229C
S3150801D4041A700EE05A200DF0E9F9084B09221A7030
S3150801D41407E064200DF0E2F9044B0A221A7000E0D1
S3150801D42400BF00BF0837BD4680BD00BF516409204F
S3150801D43480B500AF00F006F800F098F800F0CCF8D3
S3150801D44400BF80BD80B500AF0DF040FA0246214BFE
S3150801D4541B68D31A41F2883293420FD91E4B1F4ACD
S3150801D4641A601D4B0322DA601D4A1B491D4810F038
S3150801D474B6FE0DF02BFA0346164A13600DF026FA8A
S3150801D4840246194B1B68D31AB3F5FA6F20D90BF068
S3150801D4942DFC0346002B0BD10F4B144A1A600E4B75
S3150801D4A40322DA60124A0C490E4810F098FE0AE083
S3150801D4B4094B0E4A1A60084B0322DA600D4A0649DB
S3150801D4C4084810F08CFE0DF001FA0346064A13606B
S3150801D4D400BF80BD54640920E07909202100EA18B7
S3150801D4E40C000020DC7A0920586409201700EA1880
S3150801D4F4080000200400002080B500AF144B154A2B
S3150801D5041A60134B0322DA60134A1149134810F0BF
S3150801D51466FE0BF0EBFB0346002B0BD10C4B104AB2
S3150801D5241A600B4B0322DA600E4A09490B4810F0BC
S3150801D53456FE0AE0064B0A4A1A60054B0322DA60CC
S3150801D544094A0349054810F04AFE00BF80BD00BFD9
S3150801D554E07909202100EA180C000020DC7A092068
S3150801D5641700EA18080000200400002080B582B0DC
S3150801D57400AF144A3B4692E8030083E8030001F02E
S3150801D58429F90346DBB27B700DF0A0F902460E4B6E
S3150801D5941B68D31AB3F5FA7F10D90C4B0C4A1A60D7
S3150801D5A40A4B0822DA603B461A460849094810F02C
S3150801D5B416FE0DF08BF90346034A136000BF0837BC
S3150801D5C4BD4680BD582806085C640920E07909200F
S3150801D5D421FCFE18DC7A092080B582B000AF1A4A0C
S3150801D5E43B4692E8030083E803000AF017FE034664
S3150801D5F49AB2164B1A800DF069F90246144B1B6848
S3150801D604D31AB3F5FA7F1AD9124B134A1A60114B76
S3150801D6140822DA600D4B1B88DBB23B710B4B1B8866
S3150801D6241B0A9BB2DBB27B713B461A4609490B4876
S3150801D63410F0D5FD0DF04AF90346054A136000BFFB
S3150801D6440837BD4680BD00BF58280608606409200E
S3150801D65464640920E079092021F8FE18DC7A092096
S3150801D66480B584B000AF0023FB6000237B600023F0
S3150801D674FB721F2002F09AFBF8601F2003F008FAD8
S3150801D6840346002B03D1FB68B3F57E4F02D300236F
S3150801D694FB6008E01F2003F097F90346002B38D0F6
S3150801D6A41F2003F0B1F91D4B1B78FA6891B21C4A85
S3150801D6B45B0013440A465A80184B1B780133DAB2C5
S3150801D6C4164B1A70154B1B78032B02D9134B0022E0
S3150801D6D41A700023FB600023FB720BE0FB7A104AE5
S3150801D6E45B0013445B881A46FB681344FB60FB7AA8
S3150801D6F40133FB72FB7A032BF0D9FB689B08FB60A9
S3150801D704FB689AB2064B1A80054B1A88054B1A8090
S3150801D71400E000BF1037BD4680BD00BF786409200C
S3150801D7246C6409206864092080B582B000AF0123BE
S3150801D734FB714E4B1B78012B04D10DF0C7F8034638
S3150801D7444B4A13600DF0C2F80246494B1B68D31ABB
S3150801D7543B6000F039F90346002B0BD13B68B3F55E
S3150801D7647A7F07D200F048F90346012B02D13F4BD1
S3150801D77400221A7000F028F90346002B1AD13D4BF2
S3150801D7841B78012B16D13B6840F2DC52934211D91E
S3150801D7943B6840F6C31293420CD800F02DF90346B0
S3150801D7A4012B07D1314B00221A70324B00221A7011
S3150801D7B4032356E000F008F90346002B1AD100F0BA
S3150801D7C41BF90346002B15D12A4B1B78012B11D1C2
S3150801D7D43B6840F2DC5293420CD93B6840F6C312CB
S3150801D7E4934207D8214B00221A70224B00221A7041
S3150801D7F4062336E01D4B1B78002B22D100F0E4F8F2
S3150801D8040346012B1DD13B68322B02D80923FB7130
S3150801D81410E03B68322B06D93B68B3F57A7F02D20E
S3150801D8240223FB7106E03B6841F28832934201D92F
S3150801D8340A23FB710F4B01221A700C4B01221A7031
S3150801D8440EE000F0C1F80346002B09D13B6840F607
S3150801D854C312934204D90A23FB71044B00221A709A
S3150801D864FB7918460837BD4680BD00BF0F00002066
S3150801D8747C6409201000002080B582B000AF012322
S3150801D884FB714E4B1B78012B04D10DF01FF803468F
S3150801D8944B4A13600DF01AF80246494B1B68D31A12
S3150801D8A43B6000F0A9F80346002B0BD13B68B3F59E
S3150801D8B47A7F07D200F088F80346012B02D13F4B41
S3150801D8C400221A7000F098F80346002B1AD13D4B32
S3150801D8D41B78012B16D13B6840F2DC52934211D9CD
S3150801D8E43B6840F6C31293420CD800F06DF8034620
S3150801D8F4012B07D1314B00221A70324B00221A70C0
S3150801D904032356E000F078F80346002B1AD100F0F9
S3150801D9145BF80346002B15D12A4B1B78012B11D131
S3150801D9243B6840F2DC5293420CD93B6840F6C31279
S3150801D934934207D8214B00221A70224B00221A70EF
S3150801D944062336E01D4B1B78002B22D100F054F830
S3150801D9540346012B1DD13B68322B02D80923FB71DF
S3150801D96410E03B68322B06D93B68B3F57A7F02D2BD
S3150801D9740223FB7106E03B6841F28832934201D9DE
S3150801D9840A23FB710F4B01221A700C4B01221A70E0
S3150801D9940EE000F031F80346002B09D13B6840F646
S3150801D9A4C312934204D90A23FB71044B00221A7049
S3150801D9B4FB7918460837BD4680BD00BF1100002013
S3150801D9C4806409201200002080B582B000AF0023CC
S3150801D9D4FB710121074811F057FA0346002B02D1BE
S3150801D9E40023FB7101E00123FB71FB791846083713
S3150801D9F4BD4680BD0000024280B582B000AF002357
S3150801DA04FB710221074811F03FFA0346002B02D1A4
S3150801DA140023FB7101E00123FB71FB7918460837E2
S3150801DA24BD4680BD0000024280B500AF0CF04EFF32
S3150801DA340346044A13600CF049FF0346024A13607D
S3150801DA4400BF80BD7C6409208064092080B582B04A
S3150801DA5400AF0023FB8000237B71012002F0A6F9A5
S3150801DA640346FB80012003F013F80346002B02D179
S3150801DA74FB88FD2B0ED90023FB808D4B00221A73DC
S3150801DA848C4B01221A708C4B02221A70884B002285
S3150801DA945A733BE0874B00221A70FB884F2B08D830
S3150801DAA40023FB80844B00221A70814B00225A738F
S3150801DAB411E0FB88962B08D99623FB80FB88DBB2F9
S3150801DAC4283BDAB27A4B5A7305E0FB88DBB2283B6A
S3150801DAD4DAB2774B5A73764B5B7B682B03D9764B51
S3150801DAE401221A7012E0724B5B7B642B07D8724BC6
S3150801DAF41B78012B03D1704B00221A7006E06E4B7A
S3150801DB041B78022B02D16C4B00221A706B4B1B78C3
S3150801DB14012B11D100237B7108E07B79644A5B00F0
S3150801DB241344FA885A807B7901337B717B79032BF9
S3150801DB34F3D9624B00221A70614B1B785C4A5B006D
S3150801DB441344FA885A800023FB8000237B710AE078
S3150801DB547B79574A5B0013445A88FB881344FB8034
S3150801DB647B7901337B717B79032BF1D9FB889B087C
S3150801DB74FB80534B1B780133DAB2514B1A70504B65
S3150801DB841B78032B02D94E4B00221A70484AFB888C
S3150801DB941380474B5B7B002B02D1454B00225A73FA
S3150801DBA4434B5A89424B1B889A4200F00681404BE3
S3150801DBB41A883F4B5A813E4B1B7B002B07D13C4BA2
S3150801DBC45B894F2B03D83A4B00221A73F5E0384B7D
S3150801DBD41B7B012B0BD8364B5B894F2B07D9344B4F
S3150801DBE45B89632B03D8324B01221A73E5E0304B68
S3150801DBF41B7B022B0BD82E4B5B89632B07D92C4B2A
S3150801DC045B896D2B03D82A4B02221A73D5E0284B5C
S3150801DC141B7B032B0BD8264B5B896D2B07D9244B0E
S3150801DC245B89772B03D8224B03221A73C5E0204B51
S3150801DC341B7B042B0BD81E4B5B89772B07D91C4BF3
S3150801DC445B89812B03D81A4B04221A73B5E0184B46
S3150801DC541B7B052B0BD8164B5B89812B07D9144BD8
S3150801DC645B898B2B03D8124B05221A73A5E0104B3B
S3150801DC741B7B062B0BD80E4B5B898B2B07D90C4BBD
S3150801DC845B89902B03D80A4B06221A7395E0084B35
S3150801DC941B7B062B16D8064B5B898B2B12D9044B97
S3150801DCA45B89902B0ED8024B06221A7385E000BFB6
S3150801DCB488640920846409208664092013000020E5
S3150801DCC496640920414B1B7B072B0BD83F4B5B8979
S3150801DCD4902B07D93D4B5B89952B03D83B4B0722E0
S3150801DCE41A736AE0394B1B7B082B07D8374B5B89B8
S3150801DCF4952B03D9354B08221A735EE0334B1B7BEC
S3150801DD04002B07D0314B5B894F2B03D82F4B0022AD
S3150801DD141A7352E02D4B1B7B012B07D92B4B5B89BD
S3150801DD24632B03D8294B01221A7346E0274B1B7B25
S3150801DD34022B07D9254B5B896D2B03D8234B02226A
S3150801DD441A733AE0214B1B7B032B07D91F4B5B89BB
S3150801DD54772B03D81D4B03221A732EE01B4B1B7B0F
S3150801DD64042B07D9194B5B89812B03D8174B04223A
S3150801DD741A7322E0154B1B7B052B07D9134B5B89B9
S3150801DD848B2B03D8114B05221A7316E00F4B1B7BF9
S3150801DD94062B07D90D4B5B89902B03D80B4B06220F
S3150801DDA41A730AE0094B1B7B072B06D9074B5B89B8
S3150801DDB4952B02D8054B07221A73044B1B7B18466D
S3150801DDC400F006F800BF0837BD4680BD88640920FF
S3150801DDD480B483B000AF0346FB71044AFB7913731D
S3150801DDE400BF0C37BD465DF8047B7047886409207B
S3150801DDF480B400AF034B1B7B1846BD465DF8047B14
S3150801DE04704700BF8864092080B500AF244B1B788E
S3150801DE14022B0CD0022B38DC002B2FD0012B34D14A
S3150801DE24204B01221A70204B01221A7034E00CF09F
S3150801DE344DFD02461D4B1B68D31A1D4A128893428F
S3150801DE4418D90CF043FD0346184A1360154B1B7881
S3150801DE5483F00103DAB2134B1A70124B1B78002BA9
S3150801DE6404D0134B40F2EE221A8003E0104B4FF410
S3150801DE747A721A800C4B00221A700DE0094B0022A3
S3150801DE841A70094B00221A7006E0064B00221A7012
S3150801DE94054B00221A7000BF024B1B78184680BD39
S3150801DEA486640920976409208564092098640920F1
S3150801DEB49C64092080B400AF034B1B781846BD4601
S3150801DEC45DF8047B704700BF8564092080B400AF00
S3150801DED4034B5B7B1846BD465DF8047B704700BF60
S3150801DEE48864092080B582B000AF0023FB80002333
S3150801DEF47B71032001F05AFF0346FB80032002F0DD
S3150801DF04C7FD0346002B02D1FB88FD2B0BD9002341
S3150801DF14FB808E4B00221A738D4B01221A708D4B8E
S3150801DF2402221A7017E08A4B00221A70FB88252BE5
S3150801DF3403D8884B01221A700DE0FB883D2B03D9BF
S3150801DF44844B00221A7006E0824B1B78022B02D1FD
S3150801DF54804B00221A70804B1B78012B11D10023A8
S3150801DF647B7108E07B79794A5B001344FA885A8005
S3150801DF747B7901337B717B79032BF3D9764B0022A9
S3150801DF841A70764B1B78714A5B001344FA885A80D7
S3150801DF940023FB8000237B710AE07B796B4A5B00D3
S3150801DFA413445A88FB881344FB807B7901337B71BC
S3150801DFB47B79032BF1D9FB889B08FB80674B1B787C
S3150801DFC40133DAB2654B1A70644B1B78032B02D9F9
S3150801DFD4624B00221A705D4AFB8813805B4B5A898F
S3150801DFE45A4B1B889A4200F03E81584B1A88574B64
S3150801DFF45A81564B1B7B002B07D1544B5B89182B33
S3150801E00403D8524B00221A732DE1504B1B7B012B6B
S3150801E0140BD84E4B5B89182B07D94C4B5B89312B93
S3150801E02403D84A4B01221A731DE1484B1B7B022B69
S3150801E0340BD8464B5B89312B07D9444B5B894A2B51
S3150801E04403D8424B02221A730DE1404B1B7B032B67
S3150801E0540BD83E4B5B894A2B07D93C4B5B89632B0F
S3150801E06403D83A4B03221A73FDE0384B1B7B042B66
S3150801E0740BD8364B5B89632B07D9344B5B897C2BCD
S3150801E08403D8324B04221A73EDE0304B1B7B052B64
S3150801E0940BD82E4B5B897C2B07D92C4B5B89952B8B
S3150801E0A403D82A4B05221A73DDE0284B1B7B062B62
S3150801E0B40BD8264B5B89952B07D9244B5B89AE2B49
S3150801E0C403D8224B06221A73CDE0204B1B7B062B61
S3150801E0D40BD81E4B5B89952B07D91C4B5B89AE2B39
S3150801E0E403D81A4B06221A73BDE0184B1B7B072B60
S3150801E0F40BD8164B5B89AE2B07D9144B5B89C72BF7
S3150801E10403D8124B07221A73ADE0104B1B7B082B5D
S3150801E1140BD80E4B5B89C72B07D90C4B5B89E02BB4
S3150801E12403D80A4B08221A739DE0084B1B7B092B5B
S3150801E13416D8064B5B89E02B12D9044B5B89F92B5C
S3150801E1440ED8024B09221A738DE000BFA064092078
S3150801E1549E6409209F64092014000020AE640920E6
S3150801E164454B1B7B0A2B07D8434B5B89F92B03D9F0
S3150801E174414B0A221A7376E03F4B1B7B002B07D0CF
S3150801E1843D4B5B89182B03D83B4B00221A736AE073
S3150801E194394B1B7B012B07D9374B5B89312B03D8A9
S3150801E1A4354B01221A735EE0334B1B7B022B07D9CD
S3150801E1B4314B5B894A2B03D82F4B02221A7352E03F
S3150801E1C42D4B1B7B032B07D92B4B5B89632B03D85D
S3150801E1D4294B03221A7346E0274B1B7B042B07D9C9
S3150801E1E4254B5B897C2B03D8234B04221A733AE00B
S3150801E1F4214B1B7B052B07D91F4B5B89952B03D811
S3150801E2041D4B05221A732EE01B4B1B7B062B07D9C4
S3150801E214194B5B89AE2B03D8174B06221A7322E0D6
S3150801E224154B1B7B072B07D9134B5B89C72B03D8C4
S3150801E234114B07221A7316E00F4B1B7B082B07D9C0
S3150801E2440D4B5B89E02B03D80B4B08221A730AE0A2
S3150801E254094B1B7B092B06D9074B5B89F92B02D87A
S3150801E264054B09221A73044B1B7B184600F006F862
S3150801E27400BF0837BD4680BDA064092080B483B0B9
S3150801E28400AF0346FB71044AFB79137300BF0C37CD
S3150801E294BD465DF8047B7047A064092080B400AFCD
S3150801E2A4034B1B7B1846BD465DF8047B704700BFCC
S3150801E2B4A064092080B500AF1F4B1B78022B09D037
S3150801E2C4022B2FDC002B29D0012B2BD11B4B01222E
S3150801E2D41A702CE00CF0FAFA0246194B1B68D31A89
S3150801E2E4184A1288934221D90CF0F0FA0346144AC3
S3150801E2F41360124B1B7883F00103DAB20F4B1A70C1
S3150801E3040E4B1B78002B04D00E4B40F2EE221A80DA
S3150801E3140CE00C4B4FF47A721A8007E0074B002283
S3150801E3241A7004E0054B00221A7000E000BF034B83
S3150801E3341B78184680BD00BF9F640920AF64092075
S3150801E344B0640920B464092080B586B000AF0023FF
S3150801E354BB600023FB750023BB7500233B610023C7
S3150801E364FB6000237B6001200AF02EF838613B69C3
S3150801E37441F6E65293420FD9964B01221A700023AD
S3150801E3843B61954B02221A70944B0022DA64934B33
S3150801E394002283F848200EE03B6941F6B5529342C0
S3150801E3A409D88C4B1B78012B05D18A4B00221A708C
S3150801E3B4894B00221A708A4B1B78012B0FD1002333
S3150801E3C4BB7509E0BB7D854A14339B0013443A693E
S3150801E3D45A60BB7D0133BB75BB7D0F2BF2D9814BCB
S3150801E3E41B787E4A14339B0013443A695A60002306
S3150801E3F43B610023BB750BE0BB7D784A14339B0054
S3150801E40413445B683A6913443B61BB7D0133BB75AD
S3150801E414BB7D0F2BF0D93B691B093B61714B1B78FB
S3150801E4240133DAB26F4B1A706E4B1B780F2B02D974
S3150801E4346C4B00221A7007F108031A46396902203F
S3150801E44409F0E0FF664B1B78012B11D10023FB75FC
S3150801E45408E0FB7DBA6861499B000B445A60FB7D61
S3150801E4640133FB75FB7D0F2BF3D95D4B00221A7023
S3150801E4745D4B1B78BA6859499B000B445A600023C3
S3150801E484BB600023FB750AE0FB7D544A9B001344D9
S3150801E4945A68BB681344BB60FB7D0133FB75FB7D7E
S3150801E4A40F2BF1D9BB681B09BB604F4B1B78013392
S3150801E4B4DAB24D4B1A704C4B1B780F2B16D9002325
S3150801E4C4FB750DE0FB7D0133F97D444A9B0013443A
S3150801E4D45A6842488B0003445A60FB7D0133FB7535
S3150801E4E4FB7D0E2BEED9404B0F221A70BB68042B09
S3150801E4F40DD9BB68202B0AD8364B1B78002B06D1BD
S3150801E504354B01221A70394B00221A7017E0BB6881
S3150801E514252B07D92F4B1B78002B03D12E4B002211
S3150801E5241A700CE0BB68042B09D82A4B1B78002BFC
S3150801E53405D1294B02221A702C4B01221A70BB6889
S3150801E544264AD364254BDB6C3A1D1946062009F085
S3150801E55459FF204B1B78012B03D0244B1B78012B25
S3150801E56403D1234BFE225A7003E07B68DAB2204BAF
S3150801E5745A70184B1B78002B40F02681174B1B6DDC
S3150801E584164AD26C92B2934200F01E81134BDB6C8D
S3150801E594124A1365114B93F84830002B08D10F4BD7
S3150801E5A41B6D112B04D80D4B002283F848200BE16F
S3150801E5B40A4B93F84830012B1CD8084B1B6D112BB9
S3150801E5C418D9064B1B6D382B14D8044B012283F832
S3150801E5D44820F9E04C65092020000020B864092088
S3150801E5E4210000204D6509204E6509204F65092043
S3150801E5F418000020764B93F84830022B0CD8744B3C
S3150801E6041B6D382B08D9724B1B6D4F2B04D8704BD5
S3150801E614022283F84820D7E06D4B93F84830032B40
S3150801E6240CD86B4B1B6D4F2B08D9694B1B6D672B8C
S3150801E63404D8674B032283F84820C5E0644B93F852
S3150801E6444830042B0CD8624B1B6D672B08D9604BD9
S3150801E6541B6D7B2B04D85E4B042283F84820B3E058
S3150801E6645B4B93F84830052B0CD8594B1B6D7B2B08
S3150801E67408D9574B1B6D902B04D8554B052283F8A3
S3150801E6844820A1E0524B93F84830062B0CD8504B3E
S3150801E6941B6D902B08D94E4B1B6DA42B04D84C4BE0
S3150801E6A4062283F848208FE0494B93F84830072B14
S3150801E6B40CD8474B1B6DA42B08D9454B1B6DB32BA3
S3150801E6C404D8434B072283F848207DE0404B93F84E
S3150801E6D44830082B08D83E4B1B6DB32B04D93C4B49
S3150801E6E4082283F848206FE0394B93F84830002B09
S3150801E6F408D0374B1B6D0F2B04D8354B002283F8F2
S3150801E704482061E0324B93F84830012B08D9304B45
S3150801E7141B6D342B04D82E4B012283F8482053E071
S3150801E7242B4B93F84830022B08D9294B1B6D4B2BDD
S3150801E73404D8274B022283F8482045E0244B93F852
S3150801E7444830032B08D9224B1B6D602B04D8204B68
S3150801E754032283F8482037E01D4B93F84830042BED
S3150801E76408D91B4B1B6D732B04D8194B042283F848
S3150801E774482029E0164B93F84830052B08D9144B41
S3150801E7841B6D892B04D8124B052283F848201BE0FC
S3150801E7940F4B93F84830062B08D90D4B1B6D9C2B50
S3150801E7A404D80B4B062283F848200DE0084B93F84E
S3150801E7B44830072B08D9064B1B6DAA2B04D8044BE2
S3150801E7C4072283F84820FFE700BF1837BD4680BDF6
S3150801E7D4B864092080B400AF034B5B781846BD467C
S3150801E7E45DF8047B704700BF1800002080B400AFB1
S3150801E7F4034B93F848301846BD465DF8047B7047C9
S3150801E804B864092080B400AF034B1B781846BD468B
S3150801E8145DF8047B704700BF2000002080B582B0F4
S3150801E82400AF00237B600023FB700023BB70072025
S3150801E83402F02EF90346FB70072001F0B7FA786057
S3150801E844072002F003F90346BB707B68322202FBF8
S3150801E85403F31F4AA2FB03235B091E4A13607B6861
S3150801E864B3F17E4F02D31B4B00221A60194B1B6866
S3150801E874194A934202D3174B184A1A60184B1B7844
S3150801E884002B09D0BB78002B06D1164B01221A702E
S3150801E894154B01221A7015E0FB78002B09D0104B91
S3150801E8A400221A700F4B00221A700F4B01221A709C
S3150801E8B408E00C4B00221A70094B00221A700A4B05
S3150801E8C402221A7000F0A4F800BF0837BD4680BDBD
S3150801E8D41F85EB5150650920809698007F9698000C
S3150801E8E422000020556509205465092080B400AF2B
S3150801E8F4034B1B681846BD465DF8047B704700BF89
S3150801E9045065092080B400AF034B1B781846BD46F1
S3150801E9145DF8047B704700BF5565092080B500AFD3
S3150801E9241B4B1B78012B02D0022B04D027E0194B71
S3150801E93401221A7028E00BF0C9FF0246164B1B6820
S3150801E944D31A164A128893421DD90BF0BFFF034600
S3150801E954114A13600F4B1B7883F00103DAB20D4B8E
S3150801E9641A700C4B1B78002B04D00C4B4FF4FA721B
S3150801E9741A8008E0094B4FF4FA721A8003E0054B32
S3150801E98401221A7000E000BF024B1B78184680BDAD
S3150801E99454650920626509206465092068650920AA
S3150801E9A480B483B000AF7860044A7B68136000BF03
S3150801E9B40C37BD465DF8047B704700BF58650920CE
S3150801E9C480B483B000AF7860044A7B68136000BFE3
S3150801E9D40C37BD465DF8047B704700BF5C650920AA
S3150801E9E480B400AF034B1B681846BD465DF8047B2B
S3150801E9F4704700BF5865092080B400AF034B1B68F4
S3150801EA041846BD465DF8047B704700BF5C6509205E
S3150801EA1480B582B000AF00237B6000233B600AF017
S3150801EA2449F803467B600AF051F803463B601E4BDE
S3150801EA341A681E4B1B689A4231D01C4B1B687A68AC
S3150801EA449A420ED2194B1A687B68D31A184A13606C
S3150801EA54174B1B68174A934206D9174B01221A709A
S3150801EA6402E0134B00221A60104B1B683A689A425B
S3150801EA740ED20E4B1A683B68D31A104A13600F4B11
S3150801EA841B680C4A934206D90D4B01221A7002E0FF
S3150801EA940A4B00221A60054B1B68034A136000BF20
S3150801EAA40837BD4680BD00BF6C650920506509203D
S3150801EAB4586509209F860100606509205C6509205F
S3150801EAC46165092080B483B000AF0346FB71044A2B
S3150801EAD4FB79137000BF0C37BD465DF8047B70479C
S3150801EAE46165092080B483B000AF0346FB71044A0B
S3150801EAF4FB79137000BF0C37BD465DF8047B70477C
S3150801EB046065092080B400AF034B1B781846BD46DF
S3150801EB145DF8047B704700BF6165092080B400AFC6
S3150801EB24034B1B781846BD465DF8047B704700BF46
S3150801EB346065092080B586B000AF78600B46FB7026
S3150801EB4400233B617B68FB737B68FF2B02D9A223F5
S3150801EB54FB7501E0A023FB757B68A3F580737B60D5
S3150801EB6400F018F9FB7D184600F0D6F800F05CF9B8
S3150801EB74FB7B184600F0D0F800F056F9FB781846E6
S3150801EB8400F0CAF800F050F900F02EF900F0A7F8E1
S3150801EB9400233B6105E0084810F073FA3B69013329
S3150801EBA43B613B6942F20F729342F4D900BF00BF3D
S3150801EBB41837BD4680BD00BF407B092080B584B0A7
S3150801EBC400AF78607B68FF2B02D9A223FB7301E0AF
S3150801EBD4A023FB7300F0DEF8FB7B184600F09CF8D3
S3150801EBE400F022F97B68FF2B05D97B68DBB218464E
S3150801EBF400F092F804E07B68DBB2184600F08CF862
S3150801EC0400F012F97B68FF2B02D9A323FB7301E0F9
S3150801EC14A123FB73A123FB7300F0BCF8FB7B184605
S3150801EC2400F07AF800F000F900F074F90346BB73B2
S3150801EC3400F02AF900F0D8F8BB7B18461037BD4610
S3150801EC4480BD80B584B000AF78600023FB73786813
S3150801EC54FFF7B4FF0346BB73BB7BBB60BB681B02F0
S3150801EC64BB607B6801331846FFF7A8FF0346BB73ED
S3150801EC74BB7BBA681343BB60BB6818461037BD46ED
S3150801EC8480BD80B584B000AF78600023FB737868D3
S3150801EC94FFF794FF0346BB73BB7BBB60BB681B02D0
S3150801ECA4BB607B6801331846FFF788FF0346BB73CD
S3150801ECB4BB7BBA681343BB60BB681B02BB607B683A
S3150801ECC402331846FFF77AFF0346BB73BB7BBA6860
S3150801ECD41343BB60BB6818461037BD4680BD80B573
S3150801ECE482B000AF0023FB710CE000F053F8A120B9
S3150801ECF400F012F800F098F80346002B06D1FB79C8
S3150801ED040133FB71FB793F2BEFD900E000BF00BF4C
S3150801ED140837BD4680BD000080B584B000AF034600
S3150801ED24FB7100F0E9F80023FB7327E0FA79FB7B12
S3150801ED34802141FA03F31340002B06D001224FF434
S3150801ED440051124810F0B8F805E000224FF40051BA
S3150801ED540E4810F0B1F801224FF480610C4810F006
S3150801ED64ABF800F0B3F800224FF48061084810F0BC
S3150801ED74A3F800F0ABF8FB7B0133FB73FB7B072B92
S3150801ED84D4D900BF00BF1037BD4680BD000C02426E
S3150801ED940004024280B500AF00F0AEF801224FF438
S3150801EDA480610F4810F088F800F090F801224FF4BA
S3150801EDB400510C4810F080F800F088F800224FF44E
S3150801EDC40051084810F078F800F080F800224FF452
S3150801EDD48061034810F070F800F078F800BF80BD30
S3150801EDE400040242000C024280B500AF00F084F828
S3150801EDF400224FF400510A4810F05EF800F066F854
S3150801EE0401224FF48061074810F056F800F05EF8C5
S3150801EE1401224FF40051024810F04EF800BF80BD9C
S3150801EE24000C02420004024280B582B000AF00F031
S3150801EE3463F800224FF48061114810F03DF800F0A0
S3150801EE4462F800F043F801224FF480610C4810F08F
S3150801EE5433F800F03BF84FF400510A4810F014F85F
S3150801EE640346FB7100224FF48061054810F024F82B
S3150801EE7400F02CF8FB7918460837BD4680BD00BF5B
S3150801EE8400040242000C024280B500AF00F034F8D7
S3150801EE9401224FF400510B4810F00EF800F016F851
S3150801EEA401224FF48061084810F006F800F00EF8C4
S3150801EEB400224FF4806104480FF0FEFF00F006F8C3
S3150801EEC400BF80BD000C02420004024280B582B034
S3150801EED400AF00237B6005E0064810F0D2F87B6892
S3150801EEE401337B607B68272BF6D900BF00BF08373F
S3150801EEF4BD4680BD407B092080B500AF01200BF0DB
S3150801EF04F1FC00BF80BD80B500AF00200BF0EAFC20
S3150801EF1400BF80BD80B582B000AF0023BB71FFF787
S3150801EF24F2FF0023FB7128E001224FF480611748A0
S3150801EF340FF0C2FFFFF7CAFFFFF7C8FF4FF40051EE
S3150801EF4413480FF0A1FF0346012B09D1FB7980224F
S3150801EF5442FA03F35AB297F9063013435BB2BB710B
S3150801EF6400224FF4806109480FF0A6FFFFF7AEFFB0
S3150801EF74FFF7ACFFFB790133FB71FB79072BD3D977
S3150801EF84BB7918460837BD4680BD00BF0004024256
S3150801EF94000C024280B500AF0BF098FC0246074B01
S3150801EFA41B689A4208D000F0BDF800F0A1FE0BF0E8
S3150801EFB48DFC0346014A136000BF80BDB86C092065
S3150801EFC490B583B000AF0023FB800EE0B7F90620A5
S3150801EFD4514913465B001344DB000B440C330022EE
S3150801EFE41A70FB8801339BB2FB80FB881D2BEDD974
S3150801EFF40023FB8031E0B7F90630484A1B01134464
S3150801F00400221A70B7F90630444A1B011344013326
S3150801F01400221A70B7F906400BF058FC02463F491C
S3150801F02423010B440C331A600023BB800EE0B7F9A5
S3150801F0340620B7F90430394912010A441344023344
S3150801F044FF221A70BB8801339BB2BB80BB88072B8E
S3150801F054EDD9FB8801339BB2FB80B7F90630002B47
S3150801F064C9DD0023FB803CE0B7F906202C49134689
S3150801F0745B001344DB000B44043300221A60B7F91E
S3150801F0840620274913465B001344DB000B44163359
S3150801F09401221A70B7F90620214913465B00134465
S3150801F0A4DB000B440C3300221A700023BB8011E0E9
S3150801F0B4B7F90620B7F90410194813465B00134437
S3150801F0C4DB0003440B440E33FF221A70BB88013359
S3150801F0D49BB2BB80BB88072BEAD9FB8801339BB259
S3150801F0E4FB80B7F90630132BBEDD0223BB800AE089
S3150801F0F4B7F904300A4A1344002283F8AE22BB88BE
S3150801F10401339BB2BB80BB88072BF1D900BF00BF73
S3150801F1140C37BD4690BD00BF90650920746C092063
S3150801F12460680920B0B58CB000AF002387F8243095
S3150801F134002387F82330BC4B00221A70002387F872
S3150801F144273000F0C7BD97F82720B84913465B0056
S3150801F1541344DB000B440C331B78002B00F0B585F4
S3150801F16497F8272013465B001344DB00AF4A134480
S3150801F174FB6197F82720AD4913465B001344DB006E
S3150801F1840B443C461D460FCD0FC495E8030084E89D
S3150801F1940300FB691B68BB61FB691B681B0AC3F394
S3150801F1A41103FB62FB691B6887F826303B78F12B50
S3150801F1B403D03B78F92B40F08B807B78172B03D04F
S3150801F1C47B78332B40F0848000237B8502E07B8D9A
S3150801F1D401337B857B8D1D2B0AD87A8D9449134679
S3150801F1E45B001344DB000B440C331B78012BEED074
S3150801F1F47B8D1D2B6CD897F827208C4913465B0009
S3150801F2041344DB000B441B68798D1A0C12048848D5
S3150801F2140B465B000B44DB0003441A6000233B8561
S3150801F2241AE097F827103C8D7A8D388D7F4D0B4659
S3150801F2345B000B44DB002B4423440E331C787C49C6
S3150801F24413465B001344DB000B4403440E33224686
S3150801F2541A703B8D01333B853B8D072BE1D997F812
S3150801F26427107A8D71480B465B000B44DB00034477
S3150801F274043319686E4813465B001344DB000344E0
S3150801F2840433196097F827107A8D68480B465B0092
S3150801F2940B44DB0003440D331878654913465B00B8
S3150801F2A41344DB000B440D3302461A707A8D604908
S3150801F2B413465B001344DB000B440C3301221A701A
S3150801F2C40BF004FB03465B4A13603A785A4B1A70EF
S3150801F2D45A4B1B7803F00803DBB2002B00F0EA84CF
S3150801F2E497F82630002B02D1002387F82330FB6ACE
S3150801F2F403F47F43B3F56B4F00F0B080B3F56C4F5D
S3150801F30440F09F84FB6ADBB2FF2B40F0998497F89F
S3150801F3142720464913465B001344DB000B440E338E
S3150801F3241B78202B40F08C8497F827203F491346F5
S3150801F3345B001344DB000B4413331B78CA2B40F0E0
S3150801F3447F8497F82720394913465B001344DB0069
S3150801F3540B4414331B78FE2B40F0728497F827204C
S3150801F364324913465B001344DB000B4415331B78FF
S3150801F374002B40F0658497F82630002B40F0608412
S3150801F38497F823400BF0A2FA03462D4A42F8243093
S3150801F39497F823302B4A0221D15497F823302A4966
S3150801F3A497F82620CA54294B1B78002B40F0488429
S3150801F3B497F82330244AD35C002B40F0418497F80C
S3150801F3C42330214AD25C224B1A7097F82720174911
S3150801F3D413465B001344DB000B4411331A781D4BA7
S3150801F3E41A7097F82720114913465B001344DB006A
S3150801F3F40B4410331B781A46174B1A80164B1B8875
S3150801F4041B0219B297F82720084813465B001344D0
S3150801F414DB0003440F331B781BB20B431BB29AB2AE
S3150801F4240D4B1A8000F00CBC706C092090650920FC
S3150801F434386E092008710920346E0920000100205C
S3150801F4447065092084650920240000208A6509203D
S3150801F45429000020896509208C650920FB6ADBB22D
S3150801F464FF2B40F0E78397F82330814AD35CFE2BC0
S3150801F47400F0E08397F823307D4AD35C97F8262079
S3150801F4849A4240F0D7830BF021FA024697F82330C3
S3150801F494784951F82330D31AB3F5BB7F00F2B08308
S3150801F4A497F82720744913465B001344DB000B4481
S3150801F4B40E331B78012B6FD197F823306F4AD35C2F
S3150801F4C4022B69D197F823400BF000FA0346694ADF
S3150801F4D442F8243097F82330654AD25C684B1B7886
S3150801F4E49A4253D1674B01221A7097F82330634A1B
S3150801F4F40321D15497F827205F4913465B00134427
S3150801F504DB000B4411331B781A465F4B1A605E4BBA
S3150801F514196897F82720584813465B001344DB00FB
S3150801F524034412331B781B020B43574A1360564B89
S3150801F534196897F82720504813465B001344DB00E3
S3150801F544034413331B78DB0203F4E0230B434E4ACB
S3150801F554136097F82720484913465B001344DB00D8
S3150801F5640B4413331B7803F01F03DAB2464B1A71A3
S3150801F57497F82720404913465B001344DB000B44E4
S3150801F58415331B781A46414B1A6052E397F8233010
S3150801F594184601F001FA4CE397F82330374AD35C4D
S3150801F5A4032B40F0248397F823400BF08FF9034685
S3150801F5B4304A42F82430FE2387F8263097F8272064
S3150801F5C42D4913465B001344DB000B440E331B78A9
S3150801F5D487F825302B4A97F8253013702C4B1B785E
S3150801F5E497F825209A420ED12A4B1B88023B9B0881
S3150801F5F4DAB2294B1A7097F82330184601F0CCF978
S3150801F604264B01221A70002387F8243097F82530EF
S3150801F614242B02D9242387F8253097F82530052B7E
S3150801F62415D997F82530023B9B0887F8243097F8B3
S3150801F63424309B00DBB297F82520D31A87F82530A6
S3150801F64497F824301A46D200D31A87F8243097F843
S3150801F6542530023B032B00F2F18201A252F823F072
S3150801F664A5F601080BF8010891F90108ABFA010896
S3150801F6742400002070650920906509208465092005
S3150801F68429000020706C0920406A0920B46C0920FD
S3150801F694896509208C6509208B6509208A650920F5
S3150801F6A497F824300133452B4ED897F82430013383
S3150801F6B4B34A1268B34941F8332097F82430013321
S3150801F6C4B04A52F8331097F82720AF4813465B001F
S3150801F6D41344DB0003440F331B781A0297F82430CA
S3150801F6E401330A43A74941F8332097F824300133F3
S3150801F6F4A44A52F8331097F82720A34813465B0007
S3150801F7041344DB00034410331B78DB0203F4E022C1
S3150801F71497F8243001330A439A4941F8332097F874
S3150801F7242720994913465B001344DB000B44103325
S3150801F7341A7897F82430013302F01F02D1B2914A9C
S3150801F744DB0013440A461A7197F824300233452B11
S3150801F75400F2688297F827208B4913465B00134405
S3150801F764DB000B4412331A7897F824300233114616
S3150801F774844A42F8331097F824300233814A52F8FE
S3150801F784331097F82720804813465B001344DB009F
S3150801F794034413331B781A0297F8243002330A43B5
S3150801F7A4784941F8332097F824300233754A52F8D8
S3150801F7B4331097F82720744813465B001344DB007B
S3150801F7C4034414331B78DB0203F4E02297F824304C
S3150801F7D402330A436B4941F8332097F827206A49CB
S3150801F7E413465B001344DB000B4414331A7897F869
S3150801F7F42430023302F01F02D1B2624ADB001344F9
S3150801F8040A461A710EE297F824300333452B57D862
S3150801F81497F827205C4913465B001344DB000B4425
S3150801F8240F331A7897F8243003331146554A42F8A8
S3150801F834331097F824300333524A52F8331097F8A1
S3150801F8442720514813465B001344DB000344103355
S3150801F8541B781A0297F8243003330A43494941F8B5
S3150801F864332097F824300333464A52F8331097F86D
S3150801F8742720454813465B001344DB000344113330
S3150801F8841B78DB0203F4E02297F8243003330A4396
S3150801F8943C4941F8332097F827203B4913465B0036
S3150801F8A41344DB000B4411331A7897F824300333D5
S3150801F8B402F01F02D1B2334ADB0013440A461A7115
S3150801F8C497F824300433452B00F2AE8197F82720A4
S3150801F8D42D4913465B001344DB000B4413331A7892
S3150801F8E497F8243004331146264A42F8331097F818
S3150801F8F424300433234A52F8331097F82720224830
S3150801F90413465B001344DB00034414331B781A02C1
S3150801F91497F8243004330A431A4941F8332097F8EF
S3150801F92424300433174A52F8331097F82720164817
S3150801F93413465B001344DB00034415331B78DB02CF
S3150801F94403F4E02297F8243004330A430D4941F8B5
S3150801F954332097F827200C4913465B001344DB0030
S3150801F9640B4415331A7897F82430043302F01F022E
S3150801F974D1B2044ADB0013440A461A7154E100BFA2
S3150801F984B46C0920406A09209065092097F8243047
S3150801F9940533452B57D897F82720B24913465B00F8
S3150801F9A41344DB000B4410331A7897F824300533D3
S3150801F9B41146AD4A42F8331097F824300533AA4A5A
S3150801F9C452F8331097F82720A64813465B001344C8
S3150801F9D4DB00034411331B781A0297F824300533E4
S3150801F9E40A43A14941F8332097F8243005339E4A3E
S3150801F9F452F8331097F827209A4813465B001344A4
S3150801FA04DB00034412331B78DB0203F4E02297F884
S3150801FA14243005330A43944941F8332097F82720BB
S3150801FA24904913465B001344DB000B4412331A78DE
S3150801FA3497F82430053302F01F02D1B28A4ADB0053
S3150801FA4413440A461A7197F824300633452B00F2F3
S3150801FA54ED8097F82720834913465B001344DB009E
S3150801FA640B4414331A7897F82430063311467E4A20
S3150801FA7442F8331097F8243006337B4A52F8331088
S3150801FA8497F82720774813465B001344DB000344A1
S3150801FA9415331B781A0297F8243006330A43724938
S3150801FAA441F83320C2E097F824300633452B2ED883
S3150801FAB497F8243006336C4A52F8331097F82720FE
S3150801FAC4684813465B001344DB0003440F331B7871
S3150801FAD4DB0203F4E02297F8243006330A43624929
S3150801FAE441F8332097F827205E4913465B001344EF
S3150801FAF4DB000B440F331A7897F82430063302F0E7
S3150801FB041F02D1B2584ADB0013440A461A7197F800
S3150801FB1424300733452B57D897F8272051491346DC
S3150801FB245B001344DB000B4411331A7897F824302D
S3150801FB34073311464C4A42F8331097F824300733F1
S3150801FB44494A52F8331097F82720464813465B006A
S3150801FB541344DB00034412331B781A0297F8243042
S3150801FB6407330A43404941F8332097F824300733C9
S3150801FB743D4A52F8331097F827203A4813465B0052
S3150801FB841344DB00034413331B78DB0203F4E0223A
S3150801FB9497F8243007330A43334941F8332097F851
S3150801FBA42720304913465B001344DB000B44133307
S3150801FBB41A7897F82430073302F01F02D1B22A4A79
S3150801FBC4DB0013440A461A7197F824300833452B87
S3150801FBD42ED897F82720234913465B001344DB00E4
S3150801FBE40B4415331B781A46204B1A6020E097F804
S3150801FBF42330184600F0D0FEFE2387F826301DE090
S3150801FC0497F823301A4AD35C032B02D1194B0122E4
S3150801FC141A7097F82330184600F0BEFEFE2387F8BB
S3150801FC2426300BE000BF09E000BF07E000BF05E08E
S3150801FC3400BF03E0FE2387F8263002E000BF00E098
S3150801FC4400BFFB6A4EF6FF42934204D0FB6A4EF6A6
S3150801FC54FF32934203D1FB6A03F47F43FB62002319
S3150801FC643B8524E090650920406A0920B46C092083
S3150801FC74846509208A6509203B8D1B4A32F833308D
S3150801FC841A46FB6A93420FD13B8D174ADB0013448C
S3150801FC949B7897F826209A4206D13B8D124ADB00B7
S3150801FCA413445B68F86998473B8D01333B853B8D63
S3150801FCB4132BE1D997F827200C4913465B00134403
S3150801FCC4DB000B440C3300221A7097F827300133F2
S3150801FCD487F8273097F827301D2B7FF634AA00BFFB
S3150801FCE400BF3037BD46B0BDB43E0608906509204D
S3150801FCF490B583B000AF0023FB71294B1B78013300
S3150801FD04DAB2274B1A70264B1B78002B02D0244BE8
S3150801FD1400221A70224B1B78224A1B0113441B78B2
S3150801FD24002B38D00023002B0DD00AF0CFFD024654
S3150801FD341B4B1B781B491B010B440C331B68D31A39
S3150801FD440022934208D2164B1B78164A1B01134408
S3150801FD5401331B78002B1ED0114B1B781946124A06
S3150801FD640B465B000B449B00134408331B78002B9A
S3150801FD740B4B1B781C460AF0A9FD024609492301C7
S3150801FD840B440C331A60064B1B78064A1B011344B1
S3150801FD94013300221A7000BF0C37BD4690BD00BF5F
S3150801FDA4BC6C0920746C0920DC39060880B485B05A
S3150801FDB400AF0346FB710023FB60FA798F491346AA
S3150801FDC45B001344DB000B4403331B783B72FB795A
S3150801FDD42F2B00F20B81FA79884913465B001344E9
S3150801FDE4DB000B4408331B68FF2B30D1FA798349AE
S3150801FDF413465B001344DB000B441B781846FA7957
S3150801FE047E4913465B001344DB000B4401331B781C
S3150801FE1419467B4A03465B000344DB0013440B443F
S3150801FE240E331B78FB603B7ADB431A46FB681340A7
S3150801FE34FB6006E03B7A5B08DBB23B72FB685B0856
S3150801FE44FB603B7A03F00103002BF3D1CEE0FA7988
S3150801FE546A4913465B001344DB000B4402331B78DF
S3150801FE643B723B7A012B57D1FA79644913465B00F5
S3150801FE741344DB000B441B781846FA795F49134689
S3150801FE845B001344DB000B4401331B7819465C4AB7
S3150801FE9403465B000344DB0013440B440E331B780F
S3150801FEA4FB60FA79554913465B001344DB000B449E
S3150801FEB40C331B68FA689A425ED2FA794F4913469B
S3150801FEC45B001344DB000B4410331B68FA689A423F
S3150801FED409D8FA79494913465B001344DB000B44F4
S3150801FEE410331B68FB60FA79444913465B001344D3
S3150801FEF4DB000B4408331B68FA6802FB03F1FA7941
S3150801FF043E4813465B001344DB0003440433B3F948
S3150801FF1400300B44FB602FE00023FB7228E0FA79DA
S3150801FF24364913465B001344DB000B441B78184619
S3150801FF34FA79324913465B001344DB000B44013357
S3150801FF441B781A46FB7A1A442D4903465B00034477
S3150801FF54DB000B4413440E331B781A46FB7ADB0089
S3150801FF6402FA03F3FA681343FB60FB7A0133FB7263
S3150801FF743B7AFA7A9A42D2D3FA79204913465B0034
S3150801FF841344DB000B440C331B68FA689A422DD2DE
S3150801FF94FA791A4913465B001344DB000B44103300
S3150801FFA41B68FA689A4209D8FA79144913465B0018
S3150801FFB41344DB000B4410331B68FB60FA790F49C1
S3150801FFC413465B001344DB000B4408331B68FA68C9
S3150801FFD402FB03F1FA79094813465B001344DB0073
S3150801FFE403440433B3F900300B44FB60FB68184639
S3150801FFF41437BD465DF8047B704700BFE839060827
S315080200046068092080B485B000AF78600023FB815C
S315080200140FE0B7F90E20B7F90E3079680A44917BD6
S31508020024104A13440A4683F82620FB8901339BB2F5
S31508020034FB81FB89072BECD97B685B68094AD36188
S315080200447B681B68074A93617B681A7B054B83F8AE
S315080200542420054B01225A7000BF1437BD465DF8A9
S31508020064047B704760680920846C092080B485B0D3
S3150802007400AF78600023FB810FE0B7F90E20B7F9C9
S315080200840E3079680A44917B124A13440A4683F865
S315080200943E20FB8901339BB2FB81FB89072BECD9F2
S315080200A47B685B680B4A53637B681B68094A13635C
S315080200B47B681A7B074B83F83C20074B01229A700C
S315080200C4054B01229A7300BF1437BD465DF8047BBB
S315080200D4704700BF60680920846C092080B485B023
S315080200E400AF78600023FB810FE0B7F90E20B7F959
S315080200F40E3079680A44917B2A4A13440A4683F8DD
S315080201042E21FB8901339BB2FB81FB89072BECD990
S315080201147B685B68234AC2F824317B681B68214AD8
S31508020124C2F820317B681A7B1E4B83F82C211E4B9E
S3150802013401221A741C4B0122DA741B4B01225A73CC
S31508020144194B012283F82220174B012283F8232014
S31508020154154B012283F82420134B012283F8252008
S31508020164114B012283F826200F4B012283F82720FC
S315080201740D4B012283F828200B4B012283F82920F0
S31508020184094B012283F82A20074B012283F82B20E4
S31508020194054B01225A7300BF1437BD465DF8047B2A
S315080201A4704700BF60680920846C092080B485B052
S315080201B400AF78600023FB810FE0B7F90E20B7F988
S315080201C40E3079680A44917B124A13440A4683F824
S315080201D4D621FB8901339BB2FB81FB89072BECD918
S315080201E47B685B680B4AC2F8CC317B681B68094A90
S315080201F4C2F8C8317B681A7B064B83F8D421064BAE
S31508020204012283F8212000BF1437BD465DF8047B1A
S31508020214704700BF60680920846C092080B485B0E1
S3150802022400AF78600023FB810FE0B7F90E20B7F917
S315080202340E3079680A44917B104A13440A4683F8B5
S315080202445620FB8901339BB2FB81FB89072BECD928
S315080202547B685B68094AD3647B681B68074A9364AC
S315080202647B681A7B054B83F85420054B0122DA7006
S3150802027400BF1437BD465DF8047B704760680920E1
S31508020284846C092080B485B000AF78600023FB81B2
S315080202940FE0B7F90E20B7F90E3079680A44917B54
S315080202A4104A13440A4683F86E20FB8901339BB22B
S315080202B4FB81FB89072BECD97B685B68094A536681
S315080202C47B681B68074A13667B681A7B054B83F8A7
S315080202D46C20054B01221A7100BF1437BD465DF81E
S315080202E4047B704760680920846C092080B485B051
S315080202F400AF78600023FB810FE0B7F90E20B7F947
S315080203040E3079680A44917B124A13440A4683F8E2
S31508020314BE21FB8901339BB2FB81FB89072BECD9EE
S315080203247B685B680B4AC2F8B4317B681B68094A66
S31508020334C2F8B0317B681A7B064B83F8BC21064B9C
S31508020344012283F8202000BF1437BD465DF8047BDA
S31508020354704700BF60680920846C092080B485B0A0
S3150802036400AF78600023FB810FE0B7F90E20B7F9D6
S315080203740E3079680A44917B104A13440A4683F874
S315080203848620FB8901339BB2FB81FB89072BECD9B7
S315080203947B685B68094AD3677B681B68074A936765
S315080203A47B681A7B054B83F88420054B01225A7114
S315080203B400BF1437BD465DF8047B704760680920A0
S315080203C4846C092080B485B000AF78600023FB8171
S315080203D40FE0B7F90E20B7F90E3079680A44917B13
S315080203E4134A13440A4683F89E20FB8901339BB2B7
S315080203F4FB81FB89072BECD97B685B680C4AC2F83C
S3150802040494307B681B680A4AC2F890307B681A7B68
S31508020414074B83F89C20074B01229A71054B01224C
S31508020424DA7200BF1437BD465DF8047B704700BF15
S3150802043460680920846C092080B485B000AF7860AE
S315080204440023FB810FE0B7F90E20B7F90E3079685D
S315080204540A44917B114A13440A4683F8A621FB8966
S3150802046401339BB2FB81FB89072BECD97B685B685A
S315080204740A4AC2F89C317B681B68084AC2F8983152
S315080204847B681A7B054B83F8A421054B0122DA778C
S3150802049400BF1437BD465DF8047B704760680920BF
S315080204A4846C092080B485B000AF78600023FB8190
S315080204B40FE0B7F90E20B7F90E3079680A44917B32
S315080204C4114A13440A4683F84621FB8901339BB22F
S315080204D4FB81FB89072BECD97B685B680A4AC2F85D
S315080204E43C317B681B68084AC2F838317B681A7B38
S315080204F4054B83F84421054B01225A7400BF14376D
S31508020504BD465DF8047B704760680920846C09203F
S3150802051480B485B000AF78600023FB810FE0B7F999
S315080205240E20B7F90E3079680A44917B114A1344AE
S315080205340A4683F85E21FB8901339BB2FB81FB8958
S31508020544072BECD97B685B680A4AC2F854317B6884
S315080205541B68084AC2F850317B681A7B054B83F834
S315080205645C21054B01229A7400BF1437BD465DF817
S31508020574047B704760680920846C092080B485B0BE
S3150802058400AF78600023FB810FE0B7F90E20B7F9B4
S315080205940E3079680A44917B134A13440A4683F84F
S315080205A41621FB8901339BB2FB81FB89072BECD904
S315080205B47B685B680C4AC2F80C317B681B680A4A7A
S315080205C4C2F808317B681A7B074B83F81421074B58
S315080205D401221A73054B0122DA7300BF1437BD468A
S315080205E45DF8047B704700BF60680920846C0920A3
S315080205F480B485B000AF78600023FB810FE0B7F9B9
S315080206040E20B7F90E3079680A44917B114A1344CD
S315080206140A4683F8B620FB8901339BB2FB81FB8920
S31508020624072BECD97B685B680A4AC2F8AC307B684C
S315080206341B68084AC2F8A8307B681A7B054B83F8FC
S31508020644B420054B0122DA7100BF1437BD465DF8A2
S31508020654047B704760680920846C092080B485B0DD
S3150802066400AF78600023FB810FE0B7F90E20B7F9D3
S315080206740E3079680A44917B114A13440A4683F870
S315080206842620FB8901339BB2FB81FB89072BECD914
S315080206947B685B680A4AC2F8C4307B681B68084AE6
S315080206A4C2F8C0307B681A7B054B83F8CC20054B0D
S315080206B401221A7200BF1437BD465DF8047B7047DF
S315080206C460680920846C092080B485B000AF78601C
S315080206D40023FB810FE0B7F90E20B7F90E307968CB
S315080206E40A44917B114A13440A4683F8E620FB8995
S315080206F401339BB2FB81FB89072BECD97B685B68C8
S315080207040A4AC2F8DC307B681B68084AC2F8D83041
S315080207147B681A7B054B83F8E420054B01225A723F
S3150802072400BF1437BD465DF8047B7047606809202C
S31508020734846C092080B485B000AF78600023FB81FD
S315080207440FE0B7F90E20B7F90E3079680A44917B9F
S31508020754114A13440A4683F8FE20FB8901339BB2E5
S31508020764FB81FB89072BECD97B685B680A4AC2F8CA
S31508020774F4307B681B68084AC2F8F0307B681A7B37
S31508020784054B83F8FC20054B01229A7200BF1437E5
S31508020794BD465DF8047B704760680920846C0920AD
S315080207A480B485B000AF78600023FB810EE0B7F908
S315080207B40E20B7F90E3079680A44917B0F4A13441E
S315080207C40A469A73FB8901339BB2FB81FB89072B81
S315080207D4EDD97B685B68094A53607B681B68074ADC
S315080207E413607B681A7B054B1A73054B01221A7030
S315080207F400BF1437BD465DF8047B7047606809205C
S31508020804846C092080B485B000AF78607B689B7BD2
S31508020814012B38D10023FB810FE0B7F90E20B7F973
S315080208240E3079680A44917B1A4A13440A4683F8B5
S315080208348E21FB8901339BB2FB81FB89072BECD9F9
S315080208447B685B68134AC2F884317B681B68114A61
S31508020854C2F880317B681A7B0E4B83F88C210E4BC7
S3150802086401229A750C4B0122DA750B4B01229A76F0
S31508020874094B0122DA76084B012283F82E20064B0D
S31508020884012283F82F2000BF1437BD465DF8047B86
S31508020894704700BF60680920846C092080B485B05B
S315080208A400AF78600023FB810FE0B7F90E20B7F991
S315080208B40E3079680A44917B1E4A13440A4683F821
S315080208C47621FB8901339BB2FB81FB89072BECD981
S315080208D47B685B68174AC2F86C317B681B68154AE1
S315080208E4C2F868317B681A7B124B83F87421124B5F
S315080208F401221A75104B01225A750F4B01221A76D8
S315080209040D4B01225A760C4B01221A770A4B012205
S315080209145A77094B01229A77074B012283F82C202E
S31508020924054B012283F82D2000BF1437BD465DF816
S31508020934047B704760680920846C092080B400AF80
S31508020944064BFE221A70064B00221A70054B002229
S315080209541A7000BFBD465DF8047B70472900002063
S315080209648A6509208B65092080B400AF034B1B787E
S315080209741846BD465DF8047B704700BF8A650920A0
S3150802098480B400AF034B1B881846BD465DF8047B4A
S31508020994704700BF8C65092080B483B000AF034654
S315080209A4FB71FB79064A0021D154FB79054AFE21DB
S315080209B4D15400BF0C37BD465DF8047B704700BFAF
S315080209C4846509202400002080B483B000AF03465E
S315080209D4FB71FA790A4913465B001344DB000B449C
S315080209E41B781946074A0B465B000B44DB00134483
S315080209F40C331B7818460C37BD465DF8047B7047E2
S31508020A04E83906086068092080B483B000AF034653
S31508020A14FB71FA790B4913465B001344DB000B445A
S31508020A241B781946084A0B465B000B44DB00134441
S31508020A340C3300221A7000BF0C37BD465DF8047BDE
S31508020A44704700BFE83906086068092080B483B095
S31508020A5400AF0346FB71FB79034AD35C18460C378D
S31508020A64BD465DF8047B7047846C092080B483B064
S31508020A7400AF0346FB71FB79044A0021D15400BF37
S31508020A840C37BD465DF8047B704700BF846C0920A9
S31508020A9480B582B000AF0346FB71FB792F2B44D88D
S31508020AA409F014FF0146FA792A4813465B001344EF
S31508020AB4DB0003441B781846274A03465B000344B3
S31508020AC4DB00134404331B68C91AFA79214813460E
S31508020AD45B001344DB00034414331B68994212D3A4
S31508020AE4FA791C4913465B001344DB000B441B7852
S31508020AF41946194A0B465B000B44DB0013441633AA
S31508020B0401221A7011E0FA79124913465B0013445A
S31508020B14DB000B441B7819460F4A0B465B000B4451
S31508020B24DB001344163300221A70FA79094913466C
S31508020B345B001344DB000B441B781946064A0B4632
S31508020B445B000B44DB00134416331B78184608373C
S31508020B54BD4680BDE83906086068092090B585B0A7
S31508020B6400AF0023BB600023BB8103E0BB890133CA
S31508020B749BB2BB81BB891D2B0BD8B7F90C203B4909
S31508020B8413465B001344DB000B440C331B78012B1E
S31508020B94ECD0BB891D2B64D8B7F90C20334913460C
S31508020BA45B001344DB000B440C331B78002B58D12F
S31508020BB409F050FEB860B86800F05CF80346002BEA
S31508020BC44FD00023FB73B7F90C4009F07FFE0246A7
S31508020BD4264923465B002344DB000B4404331A608C
S31508020BE4B7F90C20214913465B001344DB000B4476
S31508020BF4BA681A60B7F90C4009F038FE0346194672
S31508020C041A4A23465B002344DB0013440D330A467F
S31508020C141A700023FB7312E0FB7BB7F90C20F97BED
S31508020C241348C45C114813465B001344DB000344AF
S31508020C340B440E3322461A70FB7B0133FB73FA7B91
S31508020C44FB799A4202D2FB7B072BE5D9B7F90C202A
S31508020C54064913465B001344DB000B440C3301229A
S31508020C641A7000BF1437BD4690BD00BF90650920AF
S31508020C740C7E092080B485B000AF78600023FB732C
S31508020C840BE0FB7B0A4A52F823307A689A4201D16E
S31508020C94012306E0FB7B0133FB73FB7B122BF0D9A2
S31508020CA4002318461437BD465DF8047B704700BF17
S31508020CB4683E060880B582B000AF0023FB71FFF7D1
S31508020CC43DFE00BF0837BD4680BD000080B500AFB3
S31508020CD4CF4B1B78002B09D009F0F8FD0346CD4A01
S31508020CE41360CB4B00221A7000F070FF00F06EFFFF
S31508020CF4C94B1B781F2B00F2CD8401A252F823F0AC
S31508020D04850D0208D90D02082D0E02086B0E02087B
S31508020D14A70E0208F90E02084B0F0208870F0208EB
S31508020D24C30F0208391002088B100208C7100208FA
S31508020D340311020855110208A3110208DF11020859
S31508020D441B12020869120208B7120208F3120208F1
S31508020D544913020897130208E51302082114020824
S31508020D645D140208AB140208F914020835150208C0
S31508020D7471150208BF1502080D160208491602085B
S31508020D8400228021A5480EF097F800224021A348A4
S31508020D940EF092F800222021A0480EF08DF80022C7
S31508020DA404219F480EF088F89E4B1B78C3F3000370
S31508020DB4DBB21A464FF480619B480EF07DF84FF475
S31508020DC4006199480EF060F803461A46974B1A7062
S31508020DD400F061BC0122802190480EF06DF80022D1
S31508020DE440218E480EF068F8002220218B480EF026
S31508020DF463F8002204218A480EF05EF8894B1B78B0
S31508020E04C3F34003DBB21A464FF4806186480EF0F8
S31508020E1453F84FF4006184480EF036F803461A462E
S31508020E24824B5A7000F037BC002280217B480EF0B0
S31508020E3443F80122402179480EF03EF80022202187
S31508020E4476480EF039F80122042175480EF034F872
S31508020E544FF4006174480EF017F803461A46734BAA
S31508020E649A7200F018BC002280216C480EF024F80D
S31508020E740022402169480EF01FF801222021674802
S31508020E840EF01AF80122042165480EF015F84FF4FB
S31508020E94805165480DF0F8FF03461A46644B1A73E7
S31508020EA4F9E3002280215D480EF006F8012240216A
S31508020EB45A480EF001F80022202158480DF0FCFF8A
S31508020EC40022042156480DF0F7FF564B1B78C3F34C
S31508020ED48003DBB21A464FF4806153480DF0ECFFE7
S31508020EE44FF4006150480DF0CFFF03461A464F4BA4
S31508020EF49A70D0E30122802148480DF0DDFF0122D1
S31508020F04402146480DF0D8FF0022202143480DF01F
S31508020F14D3FF0022042142480DF0CEFF414B1B7831
S31508020F24C3F3C003DBB21A464FF480613E480DF0A0
S31508020F34C3FF4FF400613C480DF0A6FF03461A4668
S31508020F443A4BDA70A7E30022802134480DF0B4FF45
S31508020F540122402131480DF0AFFF002220212F48FB
S31508020F640DF0AAFF012204212D480DF0A5FF4FF426
S31508020F7400612D480DF088FF03461A462B4B9A72D8
S31508020F8489E30022802125480DF096FF002240219C
S31508020F9422480DF091FF0122202120480DF08CFFF2
S31508020FA4012204211E480DF087FF4FF480511E4882
S31508020FB40DF06AFF03461A461D4B1A736BE30022A9
S31508020FC4802116480DF078FF0022402113480DF0BF
S31508020FD473FF0122202111480DF06EFF002204211D
S31508020FE40F480DF069FF0F4B1B78C3F30013DBB2EE
S31508020FF41A464FF480610C480DF05EFF4FF4006107
S3150802100409480DF041FF03461A46084B1A7142E392
S315080210142D000020006E0920046E092000040242F5
S31508021024000C02422C00002000080242E06D09204E
S31508021034F06D092001228021BC480DF03DFF0022F3
S315080210444021BA480DF038FF01222021B7480DF095
S3150802105433FF00220421B6480DF02EFFB54B1B7848
S31508021064C3F34013DBB21A464FF48061B2480DF05B
S3150802107423FF4FF40061B0480DF006FF03461A46F3
S31508021084AE4B5A7107E300228021A8480DF014FFDB
S3150802109401224021A5480DF00FFF00222021A34872
S315080210A40DF00AFF01220421A1480DF005FF4FF4B1
S315080210B40061A1480DF0E8FE03461A469F4B9A7250
S315080210C4E9E20022802199480DF0F6FE0022402129
S315080210D496480DF0F1FE0122202194480DF0ECFE0B
S315080210E40122042192480DF0E7FE4FF480519248FA
S315080210F40DF0CAFE03461A46914B1A73CBE2002236
S3150802110480218A480DF0D8FE0122402187480DF035
S31508021114D3FE0122202185480DF0CEFE00220421A9
S3150802112483480DF0C9FE834B1B78C3F38013DBB2E5
S315080211341A464FF4806180480DF0BEFE4FF40061F2
S315080211447D480DF0A1FE03461A467C4B9A71A2E22B
S315080211540122802175480DF0AFFE01224021734811
S315080211640DF0AAFE0122202170480DF0A5FE0022E8
S3150802117404216F480DF0A0FE4FF400616E480DF08D
S3150802118483FE03461A466D4BDA714FF480516A4858
S315080211940DF07AFE03461A46694BDA717BE200229F
S315080211A4802162480DF088FE012240215F480DF035
S315080211B483FE002220215D480DF07EFE01220421D1
S315080211C45B480DF079FE4FF400615B480DF05CFE56
S315080211D403461A46594B9A725DE200228021534805
S315080211E40DF06AFE0022402150480DF065FE0122E8
S315080211F420214E480DF060FE012204214C480DF0D0
S315080212045BFE4FF480514C480DF03EFE03461A46E7
S315080212144B4B1A733FE20022802144480DF04CFEE0
S315080212240022402141480DF047FE002220213F4872
S315080212340DF042FE012204213D480DF03DFE4FF415
S3150802124400613D480DF020FE03461A463B4B1A72CE
S315080212544FF4805138480DF017FE03461A46384BA8
S315080212641A7218E20122802130480DF025FE002266
S3150802127440212E480DF020FE002220212B480DF095
S315080212841BFE012204212A480DF016FE4FF40061C2
S3150802129429480DF0F9FD03461A46284B5A724FF4AB
S315080212A4805125480DF0F0FD03461A46244B5A721E
S315080212B4F1E1002280211D480DF0FEFD01224021A4
S315080212C41A480DF0F9FD0022202118480DF0F4FD04
S315080212D40122042116480DF0EFFD4FF40061164869
S315080212E40DF0D2FD03461A46144B9A72D3E1002234
S315080212F480210E480DF0E0FD002240210B480DF036
S31508021304DBFD0122202109480DF0D6FD0122042124
S3150802131407480DF0D1FD4FF4805107480DF0B4FD8E
S3150802132403461A46064B1A73B5E100BF0004024285
S31508021334000C02422C00002000080242E06D09203B
S31508021344F06D092000228021CD480DF0B5FD012259
S315080213544021CB480DF0B0FD00222021C8480DF0EB
S31508021364ABFD01220421C7480DF0A6FD4FF4006126
S31508021374C5480DF089FD03461A46C44B9A724FF4C2
S315080213848051C1480DF080FD03461A46C04B9A7235
S3150802139481E101228021BA480DF08EFD0122402105
S315080213A4B7480DF089FD00222021B5480DF084FDC9
S315080213B401220421B3480DF07FFD4FF40061B248BF
S315080213C40DF062FD03461A46B04BDA724FF48051A9
S315080213D4AD480DF059FD03461A46AD4BDA725AE189
S315080213E400228021A6480DF067FD01224021A44867
S315080213F40DF062FD00222021A1480DF05DFD0122B7
S315080214040421A0480DF058FD4FF400619E480DF0E2
S315080214143BFD03461A469D4B9A723CE10022802103
S3150802142497480DF049FD0022402195480DF044FDE8
S315080214340122202192480DF03FFD01220421914800
S315080214440DF03AFD4FF480518F480DF01DFD034609
S315080214541A468F4B1A731EE10022802188480DF022
S315080214642BFD0022402186480DF026FD012220216B
S3150802147483480DF021FD0122042182480DF01CFD4A
S315080214844FF4006180480DF0FFFC03461A467F4B71
S315080214941A734FF480517C480DF0F6FC03461A463B
S315080214A47B4B1A73F7E00122802175480DF004FD7F
S315080214B40022402172480DF0FFFC012220217048C7
S315080214C40DF0FAFC012204216E480DF0F5FC4FF4E6
S315080214D400616D480DF0D8FC03461A466B4B5A73E5
S315080214E44FF4805168480DF0CFFC03461A46684B00
S315080214F45A73D0E00022802161480DF0DDFC0122F6
